{
  "contractName": "EglToken",
  "abi": [
    {
      "anonymous": false,
      "inputs": [
        {
          "indexed": true,
          "internalType": "address",
          "name": "owner",
          "type": "address"
        },
        {
          "indexed": true,
          "internalType": "address",
          "name": "spender",
          "type": "address"
        },
        {
          "indexed": false,
          "internalType": "uint256",
          "name": "value",
          "type": "uint256"
        }
      ],
      "name": "Approval",
      "type": "event"
    },
    {
      "anonymous": false,
      "inputs": [
        {
          "indexed": true,
          "internalType": "address",
          "name": "from",
          "type": "address"
        },
        {
          "indexed": true,
          "internalType": "address",
          "name": "to",
          "type": "address"
        },
        {
          "indexed": false,
          "internalType": "uint256",
          "name": "value",
          "type": "uint256"
        }
      ],
      "name": "Transfer",
      "type": "event"
    },
    {
      "inputs": [
        {
          "internalType": "address",
          "name": "owner",
          "type": "address"
        },
        {
          "internalType": "address",
          "name": "spender",
          "type": "address"
        }
      ],
      "name": "allowance",
      "outputs": [
        {
          "internalType": "uint256",
          "name": "",
          "type": "uint256"
        }
      ],
      "stateMutability": "view",
      "type": "function",
      "constant": true
    },
    {
      "inputs": [
        {
          "internalType": "address",
          "name": "spender",
          "type": "address"
        },
        {
          "internalType": "uint256",
          "name": "amount",
          "type": "uint256"
        }
      ],
      "name": "approve",
      "outputs": [
        {
          "internalType": "bool",
          "name": "",
          "type": "bool"
        }
      ],
      "stateMutability": "nonpayable",
      "type": "function"
    },
    {
      "inputs": [
        {
          "internalType": "address",
          "name": "account",
          "type": "address"
        }
      ],
      "name": "balanceOf",
      "outputs": [
        {
          "internalType": "uint256",
          "name": "",
          "type": "uint256"
        }
      ],
      "stateMutability": "view",
      "type": "function",
      "constant": true
    },
    {
      "inputs": [],
      "name": "cap",
      "outputs": [
        {
          "internalType": "uint256",
          "name": "",
          "type": "uint256"
        }
      ],
      "stateMutability": "view",
      "type": "function",
      "constant": true
    },
    {
      "inputs": [],
      "name": "decimals",
      "outputs": [
        {
          "internalType": "uint8",
          "name": "",
          "type": "uint8"
        }
      ],
      "stateMutability": "view",
      "type": "function",
      "constant": true
    },
    {
      "inputs": [
        {
          "internalType": "address",
          "name": "spender",
          "type": "address"
        },
        {
          "internalType": "uint256",
          "name": "subtractedValue",
          "type": "uint256"
        }
      ],
      "name": "decreaseAllowance",
      "outputs": [
        {
          "internalType": "bool",
          "name": "",
          "type": "bool"
        }
      ],
      "stateMutability": "nonpayable",
      "type": "function"
    },
    {
      "inputs": [
        {
          "internalType": "address",
          "name": "spender",
          "type": "address"
        },
        {
          "internalType": "uint256",
          "name": "addedValue",
          "type": "uint256"
        }
      ],
      "name": "increaseAllowance",
      "outputs": [
        {
          "internalType": "bool",
          "name": "",
          "type": "bool"
        }
      ],
      "stateMutability": "nonpayable",
      "type": "function"
    },
    {
      "inputs": [],
      "name": "name",
      "outputs": [
        {
          "internalType": "string",
          "name": "",
          "type": "string"
        }
      ],
      "stateMutability": "view",
      "type": "function",
      "constant": true
    },
    {
      "inputs": [],
      "name": "symbol",
      "outputs": [
        {
          "internalType": "string",
          "name": "",
          "type": "string"
        }
      ],
      "stateMutability": "view",
      "type": "function",
      "constant": true
    },
    {
      "inputs": [],
      "name": "totalSupply",
      "outputs": [
        {
          "internalType": "uint256",
          "name": "",
          "type": "uint256"
        }
      ],
      "stateMutability": "view",
      "type": "function",
      "constant": true
    },
    {
      "inputs": [
        {
          "internalType": "address",
          "name": "recipient",
          "type": "address"
        },
        {
          "internalType": "uint256",
          "name": "amount",
          "type": "uint256"
        }
      ],
      "name": "transfer",
      "outputs": [
        {
          "internalType": "bool",
          "name": "",
          "type": "bool"
        }
      ],
      "stateMutability": "nonpayable",
      "type": "function"
    },
    {
      "inputs": [
        {
          "internalType": "address",
          "name": "sender",
          "type": "address"
        },
        {
          "internalType": "address",
          "name": "recipient",
          "type": "address"
        },
        {
          "internalType": "uint256",
          "name": "amount",
          "type": "uint256"
        }
      ],
      "name": "transferFrom",
      "outputs": [
        {
          "internalType": "bool",
          "name": "",
          "type": "bool"
        }
      ],
      "stateMutability": "nonpayable",
      "type": "function"
    },
    {
      "inputs": [
        {
          "internalType": "address",
          "name": "initialRecipient",
          "type": "address"
        },
        {
          "internalType": "string",
          "name": "name",
          "type": "string"
        },
        {
          "internalType": "string",
          "name": "symbol",
          "type": "string"
        },
        {
          "internalType": "uint256",
          "name": "initialSupply",
          "type": "uint256"
        }
      ],
      "name": "initialize",
      "outputs": [],
      "stateMutability": "nonpayable",
      "type": "function"
    }
  ],
  "bytecode": "0x608060405234801561001057600080fd5b50611245806100206000396000f3fe608060405234801561001057600080fd5b50600436106100df5760003560e01c8063395093511161008c57806395d89b411161006657806395d89b41146103aa578063a457c2d7146103b2578063a9059cbb146103de578063dd62ed3e1461040a576100df565b806339509351146102175780634d12d4b61461024357806370a0823114610384576100df565b806323b872dd116100bd57806323b872dd146101bb578063313ce567146101f1578063355274ea1461020f576100df565b806306fdde03146100e4578063095ea7b31461016157806318160ddd146101a1575b600080fd5b6100ec610438565b6040805160208082528351818301528351919283929083019185019080838360005b8381101561012657818101518382015260200161010e565b50505050905090810190601f1680156101535780820380516001836020036101000a031916815260200191505b509250505060405180910390f35b61018d6004803603604081101561017757600080fd5b506001600160a01b0381351690602001356104cf565b604080519115158252519081900360200190f35b6101a96104ec565b60408051918252519081900360200190f35b61018d600480360360608110156101d157600080fd5b506001600160a01b038135811691602081013590911690604001356104f2565b6101f961057f565b6040805160ff9092168252519081900360200190f35b6101a9610588565b61018d6004803603604081101561022d57600080fd5b506001600160a01b03813516906020013561058e565b6103826004803603608081101561025957600080fd5b6001600160a01b03823516919081019060408101602082013564010000000081111561028457600080fd5b82018360208201111561029657600080fd5b803590602001918460018302840111640100000000831117156102b857600080fd5b91908080601f016020809104026020016040519081016040528093929190818152602001838380828437600092019190915250929594936020810193503591505064010000000081111561030b57600080fd5b82018360208201111561031d57600080fd5b8035906020019184600183028401116401000000008311171561033f57600080fd5b91908080601f01602080910402602001604051908101604052809392919081815260200183838082843760009201919091525092955050913592506105e2915050565b005b6101a96004803603602081101561039a57600080fd5b50356001600160a01b0316610700565b6100ec61071b565b61018d600480360360408110156103c857600080fd5b506001600160a01b03813516906020013561077c565b61018d600480360360408110156103f457600080fd5b506001600160a01b0381351690602001356107ea565b6101a96004803603604081101561042057600080fd5b506001600160a01b03813581169160200135166107fe565b60368054604080516020601f60026000196101006001881615020190951694909404938401819004810282018101909252828152606093909290918301828280156104c45780601f10610499576101008083540402835291602001916104c4565b820191906000526020600020905b8154815290600101906020018083116104a757829003601f168201915b505050505090505b90565b60006104e36104dc610829565b848461082d565b50600192915050565b60355490565b60006104ff848484610919565b6105758461050b610829565b6105708560405180606001604052806028815260200161117a602891396001600160a01b038a16600090815260346020526040812090610549610829565b6001600160a01b03168152602081019190915260400160002054919063ffffffff610a8216565b61082d565b5060019392505050565b60385460ff1690565b60655490565b60006104e361059b610829565b8461057085603460006105ac610829565b6001600160a01b03908116825260208083019390935260409182016000908120918c16815292529020549063ffffffff610b1916565b600054610100900460ff16806105fb57506105fb610b7a565b80610609575060005460ff16155b6106445760405162461bcd60e51b815260040180806020018281038252602e81526020018061114c602e913960400191505060405180910390fd5b600054610100900460ff1615801561066f576000805460ff1961ff0019909116610100171660011790555b6001600160a01b0385166106ca576040805162461bcd60e51b815260206004820152601a60248201527f45474c544f4b454e3a494e56414c49445f524543495049454e54000000000000604482015290519081900360640190fd5b6106d48484610b8b565b6106dd82610c41565b6106e78583610d3e565b80156106f9576000805461ff00191690555b5050505050565b6001600160a01b031660009081526033602052604090205490565b60378054604080516020601f60026000196101006001881615020190951694909404938401819004810282018101909252828152606093909290918301828280156104c45780601f10610499576101008083540402835291602001916104c4565b60006104e3610789610829565b84610570856040518060600160405280602581526020016111eb60259139603460006107b3610829565b6001600160a01b03908116825260208083019390935260409182016000908120918d1681529252902054919063ffffffff610a8216565b60006104e36107f7610829565b8484610919565b6001600160a01b03918216600090815260346020908152604080832093909416825291909152205490565b3390565b6001600160a01b0383166108725760405162461bcd60e51b81526004018080602001828103825260248152602001806111c76024913960400191505060405180910390fd5b6001600160a01b0382166108b75760405162461bcd60e51b81526004018080602001828103825260228152602001806111046022913960400191505060405180910390fd5b6001600160a01b03808416600081815260346020908152604080832094871680845294825291829020859055815185815291517f8c5be1e5ebec7d5bd14f71427d1e84f3dd0314c0f7b2291e5b200ac8c7c3b9259281900390910190a3505050565b6001600160a01b03831661095e5760405162461bcd60e51b81526004018080602001828103825260258152602001806111a26025913960400191505060405180910390fd5b6001600160a01b0382166109a35760405162461bcd60e51b81526004018080602001828103825260238152602001806110e16023913960400191505060405180910390fd5b6109ae838383610e3c565b6109f181604051806060016040528060268152602001611126602691396001600160a01b038616600090815260336020526040902054919063ffffffff610a8216565b6001600160a01b038085166000908152603360205260408082209390935590841681522054610a26908263ffffffff610b1916565b6001600160a01b0380841660008181526033602090815260409182902094909455805185815290519193928716927fddf252ad1be2c89b69c2b068fc378daa952ba7f163c4a11628f55a4df523b3ef92918290030190a3505050565b60008184841115610b115760405162461bcd60e51b81526004018080602001828103825283818151815260200191508051906020019080838360005b83811015610ad6578181015183820152602001610abe565b50505050905090810190601f168015610b035780820380516001836020036101000a031916815260200191505b509250505060405180910390fd5b505050900390565b600082820183811015610b73576040805162461bcd60e51b815260206004820152601b60248201527f536166654d6174683a206164646974696f6e206f766572666c6f770000000000604482015290519081900360640190fd5b9392505050565b6000610b8530610ec8565b15905090565b600054610100900460ff1680610ba45750610ba4610b7a565b80610bb2575060005460ff16155b610bed5760405162461bcd60e51b815260040180806020018281038252602e81526020018061114c602e913960400191505060405180910390fd5b600054610100900460ff16158015610c18576000805460ff1961ff0019909116610100171660011790555b610c20610ece565b610c2a8383610f70565b8015610c3c576000805461ff00191690555b505050565b600054610100900460ff1680610c5a5750610c5a610b7a565b80610c68575060005460ff16155b610ca35760405162461bcd60e51b815260040180806020018281038252602e81526020018061114c602e913960400191505060405180910390fd5b600054610100900460ff16158015610cce576000805460ff1961ff0019909116610100171660011790555b60008211610d23576040805162461bcd60e51b815260206004820152601560248201527f45524332304361707065643a2063617020697320300000000000000000000000604482015290519081900360640190fd5b60658290558015610d3a576000805461ff00191690555b5050565b6001600160a01b038216610d99576040805162461bcd60e51b815260206004820152601f60248201527f45524332303a206d696e7420746f20746865207a65726f206164647265737300604482015290519081900360640190fd5b610da560008383610e3c565b603554610db8908263ffffffff610b1916565b6035556001600160a01b038216600090815260336020526040902054610de4908263ffffffff610b1916565b6001600160a01b03831660008181526033602090815260408083209490945583518581529351929391927fddf252ad1be2c89b69c2b068fc378daa952ba7f163c4a11628f55a4df523b3ef9281900390910190a35050565b610e47838383610c3c565b6001600160a01b038316610c3c57610e5d610588565b610e7582610e696104ec565b9063ffffffff610b1916565b1115610c3c576040805162461bcd60e51b815260206004820152601960248201527f45524332304361707065643a2063617020657863656564656400000000000000604482015290519081900360640190fd5b3b151590565b600054610100900460ff1680610ee75750610ee7610b7a565b80610ef5575060005460ff16155b610f305760405162461bcd60e51b815260040180806020018281038252602e81526020018061114c602e913960400191505060405180910390fd5b600054610100900460ff16158015610f5b576000805460ff1961ff0019909116610100171660011790555b8015610f6d576000805461ff00191690555b50565b600054610100900460ff1680610f895750610f89610b7a565b80610f97575060005460ff16155b610fd25760405162461bcd60e51b815260040180806020018281038252602e81526020018061114c602e913960400191505060405180910390fd5b600054610100900460ff16158015610ffd576000805460ff1961ff0019909116610100171660011790555b8251611010906036906020860190611048565b508151611024906037906020850190611048565b506038805460ff191660121790558015610c3c576000805461ff0019169055505050565b828054600181600116156101000203166002900490600052602060002090601f016020900481019282601f1061108957805160ff19168380011785556110b6565b828001600101855582156110b6579182015b828111156110b657825182559160200191906001019061109b565b506110c29291506110c6565b5090565b6104cc91905b808211156110c257600081556001016110cc56fe45524332303a207472616e7366657220746f20746865207a65726f206164647265737345524332303a20617070726f766520746f20746865207a65726f206164647265737345524332303a207472616e7366657220616d6f756e7420657863656564732062616c616e6365496e697469616c697a61626c653a20636f6e747261637420697320616c726561647920696e697469616c697a656445524332303a207472616e7366657220616d6f756e74206578636565647320616c6c6f77616e636545524332303a207472616e736665722066726f6d20746865207a65726f206164647265737345524332303a20617070726f76652066726f6d20746865207a65726f206164647265737345524332303a2064656372656173656420616c6c6f77616e63652062656c6f77207a65726fa2646970667358221220004ddf53c12bf5c2bd5216df893997b0403bd9674019211971df064ee32087b164736f6c63430006060033",
  "immutableReferences": {},
  "source": "pragma solidity 0.6.6;\n\nimport \"@openzeppelin/contracts-upgradeable/token/ERC20/ERC20CappedUpgradeable.sol\";\n\ncontract EglToken is Initializable, ContextUpgradeable, ERC20CappedUpgradeable {\n    function initialize(\n        address initialRecipient, \n        string memory name, \n        string memory symbol, \n        uint256 initialSupply\n    ) \n        public \n        initializer \n    {\n        require(initialRecipient != address(0), \"EGLTOKEN:INVALID_RECIPIENT\");\n\n        __ERC20_init(name, symbol);\n        __ERC20Capped_init_unchained(initialSupply);\n\n        _mint(initialRecipient, initialSupply);\n    }\n}\n",
  "sourcePath": "/Users/greg/Documents/egl_master/voting/contracts/EglToken.sol",
  "compiler": {
    "name": "solc",
    "version": "0.6.6+commit.6c089d02.Emscripten.clang"
  },
  "schemaVersion": "3.3.3",
  "updatedAt": "2022-02-16T17:29:20.859Z",
  "networkType": "ethereum",
  "devdoc": {
    "methods": {
      "allowance(address,address)": {
        "details": "See {IERC20-allowance}."
      },
      "approve(address,uint256)": {
        "details": "See {IERC20-approve}.     * Requirements:     * - `spender` cannot be the zero address."
      },
      "balanceOf(address)": {
        "details": "See {IERC20-balanceOf}."
      },
      "cap()": {
        "details": "Returns the cap on the token's total supply."
      },
      "decimals()": {
        "details": "Returns the number of decimals used to get its user representation. For example, if `decimals` equals `2`, a balance of `505` tokens should be displayed to a user as `5,05` (`505 / 10 ** 2`).     * Tokens usually opt for a value of 18, imitating the relationship between Ether and Wei. This is the value {ERC20} uses, unless {_setupDecimals} is called.     * NOTE: This information is only used for _display_ purposes: it in no way affects any of the arithmetic of the contract, including {IERC20-balanceOf} and {IERC20-transfer}."
      },
      "decreaseAllowance(address,uint256)": {
        "details": "Atomically decreases the allowance granted to `spender` by the caller.     * This is an alternative to {approve} that can be used as a mitigation for problems described in {IERC20-approve}.     * Emits an {Approval} event indicating the updated allowance.     * Requirements:     * - `spender` cannot be the zero address. - `spender` must have allowance for the caller of at least `subtractedValue`."
      },
      "increaseAllowance(address,uint256)": {
        "details": "Atomically increases the allowance granted to `spender` by the caller.     * This is an alternative to {approve} that can be used as a mitigation for problems described in {IERC20-approve}.     * Emits an {Approval} event indicating the updated allowance.     * Requirements:     * - `spender` cannot be the zero address."
      },
      "name()": {
        "details": "Returns the name of the token."
      },
      "symbol()": {
        "details": "Returns the symbol of the token, usually a shorter version of the name."
      },
      "totalSupply()": {
        "details": "See {IERC20-totalSupply}."
      },
      "transfer(address,uint256)": {
        "details": "See {IERC20-transfer}.     * Requirements:     * - `recipient` cannot be the zero address. - the caller must have a balance of at least `amount`."
      },
      "transferFrom(address,address,uint256)": {
        "details": "See {IERC20-transferFrom}.     * Emits an {Approval} event indicating the updated allowance. This is not required by the EIP. See the note at the beginning of {ERC20}.     * Requirements:     * - `sender` and `recipient` cannot be the zero address. - `sender` must have a balance of at least `amount`. - the caller must have allowance for ``sender``'s tokens of at least `amount`."
      }
    }
  },
  "userdoc": {
    "methods": {}
  }
}