{
  "contractName": "TestableEglContract",
  "abi": [
    {
      "anonymous": false,
      "inputs": [
        {
          "indexed": false,
          "internalType": "uint256",
          "name": "blockNumber",
          "type": "uint256"
        },
        {
          "indexed": false,
          "internalType": "uint16",
          "name": "currentEpoch",
          "type": "uint16"
        },
        {
          "indexed": false,
          "internalType": "uint256",
          "name": "remainingPoolReward",
          "type": "uint256"
        },
        {
          "indexed": false,
          "internalType": "int256",
          "name": "blockGasLimit",
          "type": "int256"
        },
        {
          "indexed": false,
          "internalType": "int256",
          "name": "desiredEgl",
          "type": "int256"
        },
        {
          "indexed": false,
          "internalType": "int256",
          "name": "tallyVotesGasLimit",
          "type": "int256"
        },
        {
          "indexed": false,
          "internalType": "uint256",
          "name": "proximityRewardPercent",
          "type": "uint256"
        },
        {
          "indexed": false,
          "internalType": "uint256",
          "name": "totalRewardPercent",
          "type": "uint256"
        },
        {
          "indexed": false,
          "internalType": "uint256",
          "name": "blockReward",
          "type": "uint256"
        },
        {
          "indexed": false,
          "internalType": "uint256",
          "name": "date",
          "type": "uint256"
        }
      ],
      "name": "BlockRewardCalculated",
      "type": "event"
    },
    {
      "anonymous": false,
      "inputs": [
        {
          "indexed": false,
          "internalType": "uint256",
          "name": "bonusEglsDue",
          "type": "uint256"
        }
      ],
      "name": "BonusEglsDueCalculated",
      "type": "event"
    },
    {
      "anonymous": false,
      "inputs": [
        {
          "indexed": false,
          "internalType": "address",
          "name": "caller",
          "type": "address"
        },
        {
          "indexed": false,
          "internalType": "address",
          "name": "creatorRewardAddress",
          "type": "address"
        },
        {
          "indexed": false,
          "internalType": "uint256",
          "name": "amountClaimed",
          "type": "uint256"
        },
        {
          "indexed": false,
          "internalType": "uint256",
          "name": "lastSerializedEgl",
          "type": "uint256"
        },
        {
          "indexed": false,
          "internalType": "uint256",
          "name": "remainingCreatorReward",
          "type": "uint256"
        },
        {
          "indexed": false,
          "internalType": "uint16",
          "name": "currentEpoch",
          "type": "uint16"
        },
        {
          "indexed": false,
          "internalType": "uint256",
          "name": "date",
          "type": "uint256"
        }
      ],
      "name": "CreatorRewardsClaimed",
      "type": "event"
    },
    {
      "anonymous": false,
      "inputs": [
        {
          "indexed": false,
          "internalType": "address",
          "name": "deployer",
          "type": "address"
        },
        {
          "indexed": false,
          "internalType": "address",
          "name": "eglContract",
          "type": "address"
        },
        {
          "indexed": false,
          "internalType": "address",
          "name": "eglToken",
          "type": "address"
        },
        {
          "indexed": false,
          "internalType": "address",
          "name": "genesisContract",
          "type": "address"
        },
        {
          "indexed": false,
          "internalType": "address",
          "name": "balancerToken",
          "type": "address"
        },
        {
          "indexed": false,
          "internalType": "uint256",
          "name": "totalGenesisEth",
          "type": "uint256"
        },
        {
          "indexed": false,
          "internalType": "uint256",
          "name": "ethEglRatio",
          "type": "uint256"
        },
        {
          "indexed": false,
          "internalType": "uint256",
          "name": "ethBptRatio",
          "type": "uint256"
        },
        {
          "indexed": false,
          "internalType": "uint256",
          "name": "minLiquidityTokensLockup",
          "type": "uint256"
        },
        {
          "indexed": false,
          "internalType": "uint256",
          "name": "firstEpochStartDate",
          "type": "uint256"
        },
        {
          "indexed": false,
          "internalType": "uint256",
          "name": "votingPauseSeconds",
          "type": "uint256"
        },
        {
          "indexed": false,
          "internalType": "uint256",
          "name": "epochLength",
          "type": "uint256"
        },
        {
          "indexed": false,
          "internalType": "uint256",
          "name": "date",
          "type": "uint256"
        }
      ],
      "name": "Initialized",
      "type": "event"
    },
    {
      "anonymous": false,
      "inputs": [
        {
          "indexed": true,
          "internalType": "address",
          "name": "previousOwner",
          "type": "address"
        },
        {
          "indexed": true,
          "internalType": "address",
          "name": "newOwner",
          "type": "address"
        }
      ],
      "name": "OwnershipTransferred",
      "type": "event"
    },
    {
      "anonymous": false,
      "inputs": [
        {
          "indexed": false,
          "internalType": "address",
          "name": "account",
          "type": "address"
        }
      ],
      "name": "Paused",
      "type": "event"
    },
    {
      "anonymous": false,
      "inputs": [
        {
          "indexed": false,
          "internalType": "uint256",
          "name": "percentage",
          "type": "uint256"
        }
      ],
      "name": "PercentageCalculated",
      "type": "event"
    },
    {
      "anonymous": false,
      "inputs": [
        {
          "indexed": false,
          "internalType": "address",
          "name": "caller",
          "type": "address"
        },
        {
          "indexed": false,
          "internalType": "address",
          "name": "coinbaseAddress",
          "type": "address"
        },
        {
          "indexed": false,
          "internalType": "uint256",
          "name": "blockNumber",
          "type": "uint256"
        },
        {
          "indexed": false,
          "internalType": "int256",
          "name": "blockGasLimit",
          "type": "int256"
        },
        {
          "indexed": false,
          "internalType": "uint256",
          "name": "blockReward",
          "type": "uint256"
        },
        {
          "indexed": false,
          "internalType": "uint256",
          "name": "date",
          "type": "uint256"
        }
      ],
      "name": "PoolRewardsSwept",
      "type": "event"
    },
    {
      "anonymous": false,
      "inputs": [
        {
          "indexed": false,
          "internalType": "uint256",
          "name": "poolTokensDue",
          "type": "uint256"
        }
      ],
      "name": "PoolTokensDueCalculated",
      "type": "event"
    },
    {
      "anonymous": false,
      "inputs": [
        {
          "indexed": false,
          "internalType": "address",
          "name": "caller",
          "type": "address"
        },
        {
          "indexed": false,
          "internalType": "uint256",
          "name": "currentSerializedEgl",
          "type": "uint256"
        },
        {
          "indexed": false,
          "internalType": "uint256",
          "name": "poolTokensDue",
          "type": "uint256"
        },
        {
          "indexed": false,
          "internalType": "uint256",
          "name": "poolTokens",
          "type": "uint256"
        },
        {
          "indexed": false,
          "internalType": "uint256",
          "name": "firstEgl",
          "type": "uint256"
        },
        {
          "indexed": false,
          "internalType": "uint256",
          "name": "lastEgl",
          "type": "uint256"
        },
        {
          "indexed": false,
          "internalType": "uint256",
          "name": "eglReleaseDate",
          "type": "uint256"
        },
        {
          "indexed": false,
          "internalType": "uint256",
          "name": "date",
          "type": "uint256"
        }
      ],
      "name": "PoolTokensWithdrawn",
      "type": "event"
    },
    {
      "anonymous": false,
      "inputs": [
        {
          "indexed": false,
          "internalType": "address",
          "name": "caller",
          "type": "address"
        },
        {
          "indexed": false,
          "internalType": "uint256",
          "name": "gasTarget",
          "type": "uint256"
        },
        {
          "indexed": false,
          "internalType": "uint256",
          "name": "eglAmount",
          "type": "uint256"
        },
        {
          "indexed": false,
          "internalType": "uint256",
          "name": "date",
          "type": "uint256"
        }
      ],
      "name": "ReVote",
      "type": "event"
    },
    {
      "anonymous": false,
      "inputs": [
        {
          "indexed": false,
          "internalType": "address",
          "name": "seedAccount",
          "type": "address"
        },
        {
          "indexed": false,
          "internalType": "uint256",
          "name": "seedAmount",
          "type": "uint256"
        },
        {
          "indexed": false,
          "internalType": "uint256",
          "name": "remainingSeederBalance",
          "type": "uint256"
        },
        {
          "indexed": false,
          "internalType": "uint256",
          "name": "date",
          "type": "uint256"
        }
      ],
      "name": "SeedAccountAdded",
      "type": "event"
    },
    {
      "anonymous": false,
      "inputs": [
        {
          "indexed": false,
          "internalType": "address",
          "name": "seedAddress",
          "type": "address"
        },
        {
          "indexed": false,
          "internalType": "uint256",
          "name": "individualSeedAmount",
          "type": "uint256"
        },
        {
          "indexed": false,
          "internalType": "uint256",
          "name": "releaseDate",
          "type": "uint256"
        },
        {
          "indexed": false,
          "internalType": "uint256",
          "name": "date",
          "type": "uint256"
        }
      ],
      "name": "SeedAccountClaimed",
      "type": "event"
    },
    {
      "anonymous": false,
      "inputs": [
        {
          "indexed": false,
          "internalType": "uint256",
          "name": "serializedEgl",
          "type": "uint256"
        }
      ],
      "name": "SerializedEglCalculated",
      "type": "event"
    },
    {
      "anonymous": false,
      "inputs": [
        {
          "indexed": false,
          "internalType": "uint256",
          "name": "currentEpoch",
          "type": "uint256"
        },
        {
          "indexed": false,
          "internalType": "uint256",
          "name": "secondsSinceEglStart",
          "type": "uint256"
        },
        {
          "indexed": false,
          "internalType": "uint256",
          "name": "timePassedPercentage",
          "type": "uint256"
        },
        {
          "indexed": false,
          "internalType": "uint256",
          "name": "serializedEgl",
          "type": "uint256"
        },
        {
          "indexed": false,
          "internalType": "uint256",
          "name": "maxSupply",
          "type": "uint256"
        },
        {
          "indexed": false,
          "internalType": "uint256",
          "name": "date",
          "type": "uint256"
        }
      ],
      "name": "SerializedEglCalculated",
      "type": "event"
    },
    {
      "anonymous": false,
      "inputs": [
        {
          "indexed": false,
          "internalType": "address",
          "name": "caller",
          "type": "address"
        },
        {
          "indexed": false,
          "internalType": "uint256",
          "name": "amountContributed",
          "type": "uint256"
        },
        {
          "indexed": false,
          "internalType": "uint256",
          "name": "gasTarget",
          "type": "uint256"
        },
        {
          "indexed": false,
          "internalType": "uint256",
          "name": "lockDuration",
          "type": "uint256"
        },
        {
          "indexed": false,
          "internalType": "uint256",
          "name": "ethEglRatio",
          "type": "uint256"
        },
        {
          "indexed": false,
          "internalType": "uint256",
          "name": "ethBptRatio",
          "type": "uint256"
        },
        {
          "indexed": false,
          "internalType": "uint256",
          "name": "bonusEglsReceived",
          "type": "uint256"
        },
        {
          "indexed": false,
          "internalType": "uint256",
          "name": "poolTokensReceived",
          "type": "uint256"
        },
        {
          "indexed": false,
          "internalType": "uint256",
          "name": "remainingSupporterBalance",
          "type": "uint256"
        },
        {
          "indexed": false,
          "internalType": "uint256",
          "name": "remainingBptBalance",
          "type": "uint256"
        },
        {
          "indexed": false,
          "internalType": "uint256",
          "name": "date",
          "type": "uint256"
        }
      ],
      "name": "SupporterTokensClaimed",
      "type": "event"
    },
    {
      "anonymous": false,
      "inputs": [
        {
          "indexed": false,
          "internalType": "address",
          "name": "account",
          "type": "address"
        }
      ],
      "name": "Unpaused",
      "type": "event"
    },
    {
      "anonymous": false,
      "inputs": [
        {
          "indexed": false,
          "internalType": "address",
          "name": "caller",
          "type": "address"
        },
        {
          "indexed": false,
          "internalType": "uint16",
          "name": "currentEpoch",
          "type": "uint16"
        },
        {
          "indexed": false,
          "internalType": "uint256",
          "name": "gasTarget",
          "type": "uint256"
        },
        {
          "indexed": false,
          "internalType": "uint256",
          "name": "eglAmount",
          "type": "uint256"
        },
        {
          "indexed": false,
          "internalType": "uint8",
          "name": "lockupDuration",
          "type": "uint8"
        },
        {
          "indexed": false,
          "internalType": "uint256",
          "name": "releaseDate",
          "type": "uint256"
        },
        {
          "indexed": false,
          "internalType": "uint256",
          "name": "epochVoteWeightSum",
          "type": "uint256"
        },
        {
          "indexed": false,
          "internalType": "uint256",
          "name": "epochGasTargetSum",
          "type": "uint256"
        },
        {
          "indexed": false,
          "internalType": "uint256",
          "name": "epochVoterRewardSum",
          "type": "uint256"
        },
        {
          "indexed": false,
          "internalType": "uint256",
          "name": "epochTotalVotes",
          "type": "uint256"
        },
        {
          "indexed": false,
          "internalType": "uint256",
          "name": "date",
          "type": "uint256"
        }
      ],
      "name": "Vote",
      "type": "event"
    },
    {
      "anonymous": false,
      "inputs": [
        {
          "indexed": false,
          "internalType": "address",
          "name": "caller",
          "type": "address"
        },
        {
          "indexed": false,
          "internalType": "uint16",
          "name": "currentEpoch",
          "type": "uint16"
        },
        {
          "indexed": false,
          "internalType": "int256",
          "name": "desiredEgl",
          "type": "int256"
        },
        {
          "indexed": false,
          "internalType": "uint256",
          "name": "voteThreshold",
          "type": "uint256"
        },
        {
          "indexed": false,
          "internalType": "uint256",
          "name": "actualVotePercentage",
          "type": "uint256"
        },
        {
          "indexed": false,
          "internalType": "int256",
          "name": "baselineEgl",
          "type": "int256"
        },
        {
          "indexed": false,
          "internalType": "int256",
          "name": "initialEgl",
          "type": "int256"
        },
        {
          "indexed": false,
          "internalType": "uint256",
          "name": "timeSinceFirstEpoch",
          "type": "uint256"
        },
        {
          "indexed": false,
          "internalType": "uint256",
          "name": "gracePeriodSeconds",
          "type": "uint256"
        },
        {
          "indexed": false,
          "internalType": "uint256",
          "name": "date",
          "type": "uint256"
        }
      ],
      "name": "VoteThresholdFailed",
      "type": "event"
    },
    {
      "anonymous": false,
      "inputs": [
        {
          "indexed": false,
          "internalType": "address",
          "name": "caller",
          "type": "address"
        },
        {
          "indexed": false,
          "internalType": "uint16",
          "name": "currentEpoch",
          "type": "uint16"
        },
        {
          "indexed": false,
          "internalType": "int256",
          "name": "desiredEgl",
          "type": "int256"
        },
        {
          "indexed": false,
          "internalType": "uint256",
          "name": "voteThreshold",
          "type": "uint256"
        },
        {
          "indexed": false,
          "internalType": "uint256",
          "name": "actualVotePercentage",
          "type": "uint256"
        },
        {
          "indexed": false,
          "internalType": "int256",
          "name": "gasLimitSum",
          "type": "int256"
        },
        {
          "indexed": false,
          "internalType": "int256",
          "name": "voteCount",
          "type": "int256"
        },
        {
          "indexed": false,
          "internalType": "int256",
          "name": "baselineEgl",
          "type": "int256"
        },
        {
          "indexed": false,
          "internalType": "uint256",
          "name": "date",
          "type": "uint256"
        }
      ],
      "name": "VoteThresholdMet",
      "type": "event"
    },
    {
      "anonymous": false,
      "inputs": [
        {
          "indexed": false,
          "internalType": "address",
          "name": "voter",
          "type": "address"
        },
        {
          "indexed": false,
          "internalType": "uint16",
          "name": "currentEpoch",
          "type": "uint16"
        },
        {
          "indexed": false,
          "internalType": "uint256",
          "name": "voterReward",
          "type": "uint256"
        },
        {
          "indexed": false,
          "internalType": "uint256",
          "name": "epochVoterReward",
          "type": "uint256"
        },
        {
          "indexed": false,
          "internalType": "uint256",
          "name": "voteWeight",
          "type": "uint256"
        },
        {
          "indexed": false,
          "internalType": "uint256",
          "name": "rewardMultiplier",
          "type": "uint256"
        },
        {
          "indexed": false,
          "internalType": "uint256",
          "name": "weeksDiv",
          "type": "uint256"
        },
        {
          "indexed": false,
          "internalType": "uint256",
          "name": "epochVoterRewardSum",
          "type": "uint256"
        },
        {
          "indexed": false,
          "internalType": "uint256",
          "name": "remainingVoterRewards",
          "type": "uint256"
        },
        {
          "indexed": false,
          "internalType": "uint256",
          "name": "date",
          "type": "uint256"
        }
      ],
      "name": "VoterRewardCalculated",
      "type": "event"
    },
    {
      "anonymous": false,
      "inputs": [
        {
          "indexed": false,
          "internalType": "address",
          "name": "caller",
          "type": "address"
        },
        {
          "indexed": false,
          "internalType": "uint16",
          "name": "currentEpoch",
          "type": "uint16"
        },
        {
          "indexed": false,
          "internalType": "int256",
          "name": "desiredEgl",
          "type": "int256"
        },
        {
          "indexed": false,
          "internalType": "int256",
          "name": "averageGasTarget",
          "type": "int256"
        },
        {
          "indexed": false,
          "internalType": "uint256",
          "name": "votingThreshold",
          "type": "uint256"
        },
        {
          "indexed": false,
          "internalType": "uint256",
          "name": "actualVotePercentage",
          "type": "uint256"
        },
        {
          "indexed": false,
          "internalType": "int256",
          "name": "baselineEgl",
          "type": "int256"
        },
        {
          "indexed": false,
          "internalType": "uint256",
          "name": "tokensInCirculation",
          "type": "uint256"
        },
        {
          "indexed": false,
          "internalType": "uint256",
          "name": "date",
          "type": "uint256"
        }
      ],
      "name": "VotesTallied",
      "type": "event"
    },
    {
      "anonymous": false,
      "inputs": [
        {
          "indexed": false,
          "internalType": "address",
          "name": "caller",
          "type": "address"
        },
        {
          "indexed": false,
          "internalType": "uint16",
          "name": "currentEpoch",
          "type": "uint16"
        },
        {
          "indexed": false,
          "internalType": "uint256",
          "name": "tokensLocked",
          "type": "uint256"
        },
        {
          "indexed": false,
          "internalType": "uint256",
          "name": "rewardTokens",
          "type": "uint256"
        },
        {
          "indexed": false,
          "internalType": "uint256",
          "name": "gasTarget",
          "type": "uint256"
        },
        {
          "indexed": false,
          "internalType": "uint256",
          "name": "epochVoterRewardSum",
          "type": "uint256"
        },
        {
          "indexed": false,
          "internalType": "uint256",
          "name": "epochTotalVotes",
          "type": "uint256"
        },
        {
          "indexed": false,
          "internalType": "uint256",
          "name": "epochVoteWeightSum",
          "type": "uint256"
        },
        {
          "indexed": false,
          "internalType": "uint256",
          "name": "epochGasTargetSum",
          "type": "uint256"
        },
        {
          "indexed": false,
          "internalType": "uint256",
          "name": "date",
          "type": "uint256"
        }
      ],
      "name": "Withdraw",
      "type": "event"
    },
    {
      "inputs": [
        {
          "internalType": "address",
          "name": "_seedAccount",
          "type": "address"
        },
        {
          "internalType": "uint256",
          "name": "_seedAmount",
          "type": "uint256"
        }
      ],
      "name": "addSeedAccount",
      "outputs": [],
      "stateMutability": "nonpayable",
      "type": "function"
    },
    {
      "inputs": [],
      "name": "baselineEgl",
      "outputs": [
        {
          "internalType": "int256",
          "name": "",
          "type": "int256"
        }
      ],
      "stateMutability": "view",
      "type": "function"
    },
    {
      "inputs": [
        {
          "internalType": "uint256",
          "name": "_gasTarget",
          "type": "uint256"
        },
        {
          "internalType": "uint8",
          "name": "_lockupDuration",
          "type": "uint8"
        }
      ],
      "name": "claimSeederEgls",
      "outputs": [],
      "stateMutability": "nonpayable",
      "type": "function"
    },
    {
      "inputs": [
        {
          "internalType": "uint256",
          "name": "_gasTarget",
          "type": "uint256"
        },
        {
          "internalType": "uint8",
          "name": "_lockupDuration",
          "type": "uint8"
        }
      ],
      "name": "claimSupporterEgls",
      "outputs": [],
      "stateMutability": "nonpayable",
      "type": "function"
    },
    {
      "inputs": [],
      "name": "creatorEglsTotal",
      "outputs": [
        {
          "internalType": "uint256",
          "name": "",
          "type": "uint256"
        }
      ],
      "stateMutability": "view",
      "type": "function"
    },
    {
      "inputs": [],
      "name": "currentEpoch",
      "outputs": [
        {
          "internalType": "uint16",
          "name": "",
          "type": "uint16"
        }
      ],
      "stateMutability": "view",
      "type": "function"
    },
    {
      "inputs": [],
      "name": "currentEpochStartDate",
      "outputs": [
        {
          "internalType": "uint256",
          "name": "",
          "type": "uint256"
        }
      ],
      "stateMutability": "view",
      "type": "function"
    },
    {
      "inputs": [],
      "name": "desiredEgl",
      "outputs": [
        {
          "internalType": "int256",
          "name": "",
          "type": "int256"
        }
      ],
      "stateMutability": "view",
      "type": "function"
    },
    {
      "inputs": [
        {
          "internalType": "uint256",
          "name": "",
          "type": "uint256"
        }
      ],
      "name": "gasTargetSum",
      "outputs": [
        {
          "internalType": "uint256",
          "name": "",
          "type": "uint256"
        }
      ],
      "stateMutability": "view",
      "type": "function"
    },
    {
      "inputs": [],
      "name": "initialEgl",
      "outputs": [
        {
          "internalType": "int256",
          "name": "",
          "type": "int256"
        }
      ],
      "stateMutability": "view",
      "type": "function"
    },
    {
      "inputs": [
        {
          "internalType": "address",
          "name": "_token",
          "type": "address"
        },
        {
          "internalType": "address",
          "name": "_poolToken",
          "type": "address"
        },
        {
          "internalType": "address",
          "name": "_genesis",
          "type": "address"
        },
        {
          "internalType": "uint256",
          "name": "_currentEpochStartDate",
          "type": "uint256"
        },
        {
          "internalType": "uint24",
          "name": "_votingPauseSeconds",
          "type": "uint24"
        },
        {
          "internalType": "uint32",
          "name": "_epochLength",
          "type": "uint32"
        },
        {
          "internalType": "address[]",
          "name": "_seedAccounts",
          "type": "address[]"
        },
        {
          "internalType": "uint256[]",
          "name": "_seedAmounts",
          "type": "uint256[]"
        },
        {
          "internalType": "address",
          "name": "_creatorRewardsAccount",
          "type": "address"
        }
      ],
      "name": "initialize",
      "outputs": [],
      "stateMutability": "nonpayable",
      "type": "function"
    },
    {
      "inputs": [],
      "name": "liquidityEglMatchingTotal",
      "outputs": [
        {
          "internalType": "uint256",
          "name": "",
          "type": "uint256"
        }
      ],
      "stateMutability": "view",
      "type": "function"
    },
    {
      "inputs": [],
      "name": "owner",
      "outputs": [
        {
          "internalType": "address",
          "name": "",
          "type": "address"
        }
      ],
      "stateMutability": "view",
      "type": "function"
    },
    {
      "inputs": [],
      "name": "pauseEgl",
      "outputs": [],
      "stateMutability": "nonpayable",
      "type": "function"
    },
    {
      "inputs": [],
      "name": "paused",
      "outputs": [
        {
          "internalType": "bool",
          "name": "",
          "type": "bool"
        }
      ],
      "stateMutability": "view",
      "type": "function"
    },
    {
      "inputs": [
        {
          "internalType": "uint256",
          "name": "_gasTarget",
          "type": "uint256"
        },
        {
          "internalType": "uint256",
          "name": "_eglAmount",
          "type": "uint256"
        },
        {
          "internalType": "uint8",
          "name": "_lockupDuration",
          "type": "uint8"
        }
      ],
      "name": "reVote",
      "outputs": [],
      "stateMutability": "nonpayable",
      "type": "function"
    },
    {
      "inputs": [],
      "name": "renounceOwnership",
      "outputs": [],
      "stateMutability": "nonpayable",
      "type": "function"
    },
    {
      "inputs": [
        {
          "internalType": "address",
          "name": "",
          "type": "address"
        }
      ],
      "name": "seeders",
      "outputs": [
        {
          "internalType": "uint256",
          "name": "",
          "type": "uint256"
        }
      ],
      "stateMutability": "view",
      "type": "function"
    },
    {
      "inputs": [
        {
          "internalType": "address",
          "name": "",
          "type": "address"
        }
      ],
      "name": "supporters",
      "outputs": [
        {
          "internalType": "uint32",
          "name": "claimed",
          "type": "uint32"
        },
        {
          "internalType": "uint256",
          "name": "poolTokens",
          "type": "uint256"
        },
        {
          "internalType": "uint256",
          "name": "firstEgl",
          "type": "uint256"
        },
        {
          "internalType": "uint256",
          "name": "lastEgl",
          "type": "uint256"
        }
      ],
      "stateMutability": "view",
      "type": "function"
    },
    {
      "inputs": [],
      "name": "sweepPoolRewards",
      "outputs": [],
      "stateMutability": "nonpayable",
      "type": "function"
    },
    {
      "inputs": [],
      "name": "tallyVotes",
      "outputs": [],
      "stateMutability": "nonpayable",
      "type": "function"
    },
    {
      "inputs": [],
      "name": "tallyVotesGasLimit",
      "outputs": [
        {
          "internalType": "int256",
          "name": "",
          "type": "int256"
        }
      ],
      "stateMutability": "view",
      "type": "function"
    },
    {
      "inputs": [],
      "name": "tokensInCirculation",
      "outputs": [
        {
          "internalType": "uint256",
          "name": "",
          "type": "uint256"
        }
      ],
      "stateMutability": "view",
      "type": "function"
    },
    {
      "inputs": [
        {
          "internalType": "address",
          "name": "newOwner",
          "type": "address"
        }
      ],
      "name": "transferOwnership",
      "outputs": [],
      "stateMutability": "nonpayable",
      "type": "function"
    },
    {
      "inputs": [],
      "name": "unpauseEgl",
      "outputs": [],
      "stateMutability": "nonpayable",
      "type": "function"
    },
    {
      "inputs": [
        {
          "internalType": "uint256",
          "name": "_gasTarget",
          "type": "uint256"
        },
        {
          "internalType": "uint256",
          "name": "_eglAmount",
          "type": "uint256"
        },
        {
          "internalType": "uint8",
          "name": "_lockupDuration",
          "type": "uint8"
        }
      ],
      "name": "vote",
      "outputs": [],
      "stateMutability": "nonpayable",
      "type": "function"
    },
    {
      "inputs": [
        {
          "internalType": "uint256",
          "name": "",
          "type": "uint256"
        }
      ],
      "name": "voteWeightsSum",
      "outputs": [
        {
          "internalType": "uint256",
          "name": "",
          "type": "uint256"
        }
      ],
      "stateMutability": "view",
      "type": "function"
    },
    {
      "inputs": [
        {
          "internalType": "uint256",
          "name": "",
          "type": "uint256"
        }
      ],
      "name": "voterRewardSums",
      "outputs": [
        {
          "internalType": "uint256",
          "name": "",
          "type": "uint256"
        }
      ],
      "stateMutability": "view",
      "type": "function"
    },
    {
      "inputs": [
        {
          "internalType": "address",
          "name": "",
          "type": "address"
        }
      ],
      "name": "voters",
      "outputs": [
        {
          "internalType": "uint8",
          "name": "lockupDuration",
          "type": "uint8"
        },
        {
          "internalType": "uint16",
          "name": "voteEpoch",
          "type": "uint16"
        },
        {
          "internalType": "uint256",
          "name": "releaseDate",
          "type": "uint256"
        },
        {
          "internalType": "uint256",
          "name": "tokensLocked",
          "type": "uint256"
        },
        {
          "internalType": "uint256",
          "name": "gasTarget",
          "type": "uint256"
        }
      ],
      "stateMutability": "view",
      "type": "function"
    },
    {
      "inputs": [
        {
          "internalType": "uint256",
          "name": "",
          "type": "uint256"
        }
      ],
      "name": "votesTotal",
      "outputs": [
        {
          "internalType": "uint256",
          "name": "",
          "type": "uint256"
        }
      ],
      "stateMutability": "view",
      "type": "function"
    },
    {
      "inputs": [],
      "name": "withdraw",
      "outputs": [],
      "stateMutability": "nonpayable",
      "type": "function"
    },
    {
      "inputs": [],
      "name": "withdrawPoolTokens",
      "outputs": [],
      "stateMutability": "nonpayable",
      "type": "function"
    },
    {
      "stateMutability": "payable",
      "type": "receive"
    },
    {
      "inputs": [
        {
          "internalType": "address",
          "name": "_voter",
          "type": "address"
        },
        {
          "internalType": "uint256",
          "name": "_gasTarget",
          "type": "uint256"
        },
        {
          "internalType": "uint256",
          "name": "_eglAmount",
          "type": "uint256"
        },
        {
          "internalType": "uint8",
          "name": "_lockupDuration",
          "type": "uint8"
        },
        {
          "internalType": "uint256",
          "name": "_releaseTime",
          "type": "uint256"
        }
      ],
      "name": "internalVote",
      "outputs": [],
      "stateMutability": "nonpayable",
      "type": "function"
    },
    {
      "inputs": [
        {
          "internalType": "address",
          "name": "_voter",
          "type": "address"
        }
      ],
      "name": "internalWithdraw",
      "outputs": [],
      "stateMutability": "nonpayable",
      "type": "function"
    },
    {
      "inputs": [
        {
          "internalType": "uint256",
          "name": "_timePassedSinceOrigin",
          "type": "uint256"
        }
      ],
      "name": "issueCreatorRewards",
      "outputs": [],
      "stateMutability": "nonpayable",
      "type": "function"
    },
    {
      "inputs": [
        {
          "internalType": "int256",
          "name": "_blockGasLimit",
          "type": "int256"
        },
        {
          "internalType": "int256",
          "name": "_desiredEgl",
          "type": "int256"
        },
        {
          "internalType": "int256",
          "name": "_tallyVoteGasLimit",
          "type": "int256"
        }
      ],
      "name": "calculateBlockReward",
      "outputs": [],
      "stateMutability": "nonpayable",
      "type": "function"
    },
    {
      "inputs": [
        {
          "internalType": "uint256",
          "name": "_timePassedSinceOrigin",
          "type": "uint256"
        },
        {
          "internalType": "uint256",
          "name": "_maxSupply",
          "type": "uint256"
        },
        {
          "internalType": "uint256",
          "name": "_timeLocked",
          "type": "uint256"
        }
      ],
      "name": "calculateSerializedEgl",
      "outputs": [],
      "stateMutability": "nonpayable",
      "type": "function"
    },
    {
      "inputs": [
        {
          "internalType": "uint256",
          "name": "_currentEgl",
          "type": "uint256"
        },
        {
          "internalType": "uint256",
          "name": "_firstEgl",
          "type": "uint256"
        },
        {
          "internalType": "uint256",
          "name": "_lastEgl",
          "type": "uint256"
        },
        {
          "internalType": "uint256",
          "name": "_totalPoolTokens",
          "type": "uint256"
        }
      ],
      "name": "calculateCurrentPoolTokensDue",
      "outputs": [],
      "stateMutability": "nonpayable",
      "type": "function"
    },
    {
      "inputs": [
        {
          "internalType": "uint256",
          "name": "_firstEgl",
          "type": "uint256"
        },
        {
          "internalType": "uint256",
          "name": "_lastEgl",
          "type": "uint256"
        }
      ],
      "name": "calculateBonusEglsDue",
      "outputs": [],
      "stateMutability": "nonpayable",
      "type": "function"
    },
    {
      "inputs": [
        {
          "internalType": "address",
          "name": "_voter",
          "type": "address"
        },
        {
          "internalType": "uint16",
          "name": "_currentEpoch",
          "type": "uint16"
        },
        {
          "internalType": "uint16",
          "name": "_voterEpoch",
          "type": "uint16"
        },
        {
          "internalType": "uint8",
          "name": "_lockupDuration",
          "type": "uint8"
        },
        {
          "internalType": "uint256",
          "name": "_voteWeight",
          "type": "uint256"
        }
      ],
      "name": "calculateVoterReward",
      "outputs": [],
      "stateMutability": "nonpayable",
      "type": "function"
    },
    {
      "inputs": [
        {
          "internalType": "uint256",
          "name": "_itemTotal",
          "type": "uint256"
        },
        {
          "internalType": "uint256",
          "name": "_tokensInCirculation",
          "type": "uint256"
        }
      ],
      "name": "calculatePercentageOfTokensInCirculation",
      "outputs": [],
      "stateMutability": "nonpayable",
      "type": "function"
    }
  ],
  "bytecode": "0x608060405234801561001057600080fd5b506157e380620000216000396000f3fe6080604052600436106102ca5760003560e01c806378d3e9f311610179578063a75cc400116100d6578063cf89489e1161008a578063f2fde38b11610064578063f2fde38b14610b05578063f5a0d6c014610b38578063fe9c1a2e14610b4d5761031c565b8063cf89489e14610a9f578063d700672214610adb578063eabfa9e514610af05761031c565b8063bbb2eab9116100bb578063bbb2eab9146108bd578063c71fb96c146108f6578063ceaf749e14610a755761031c565b8063a75cc40014610860578063b4f34de61461088a5761031c565b806390c023f11161012d5780639759634a116101125780639759634a146107bc578063a20cf2c4146107e6578063a3ec138d146107fb5761031c565b806390c023f11461077157806393818fc6146107865761031c565b806384000e9c1161015e57806384000e9c146106d75780638b04f79c1461070d5780638da5cb5b146107405761031c565b806378d3e9f31461065657806379a1745f146106895761031c565b8063575ede3a1161022757806367699457116101db578063715018a6116101c0578063715018a6146105eb57806373f8664714610600578063766718081461062a5761031c565b806367699457146105ac5780637010969b146105c15761031c565b80635c3728ad1161020c5780635c3728ad146104f35780635c975abb14610523578063647c75e21461054c5761031c565b8063575ede3a146104a55780635b873d33146104de5761031c565b8063378a21781161027e5780634a0eeb5f116102635780634a0eeb5f1461042757806352ce41b41461045757806355b1d8f01461046c5761031c565b8063378a2178146103fd5780633ccfd60b146104125761031c565b806327aaa7b6116102af57806327aaa7b61461035f57806335fc9b8f146103745780633716c17f146103ca5761031c565b80631018824314610321578063112bbd1d146103485761031c565b3661031c576040805162461bcd60e51b815260206004820152600f60248201527f45474c3a4e4f5f5041594d454e54530000000000000000000000000000000000604482015290519081900360640190fd5b600080fd5b34801561032d57600080fd5b50610336610b62565b60408051918252519081900360200190f35b34801561035457600080fd5b5061035d610b68565b005b34801561036b57600080fd5b50610336610e15565b34801561038057600080fd5b5061035d600480360360a081101561039757600080fd5b506001600160a01b038135169061ffff602082013581169160408101359091169060ff6060820135169060800135610e1b565b3480156103d657600080fd5b50610336600480360360208110156103ed57600080fd5b50356001600160a01b0316610e30565b34801561040957600080fd5b5061035d610e43565b34801561041e57600080fd5b5061035d6114b2565b34801561043357600080fd5b5061035d6004803603604081101561044a57600080fd5b50803590602001356116ac565b34801561046357600080fd5b506103366116f8565b34801561047857600080fd5b5061035d6004803603606081101561048f57600080fd5b508035906020810135906040013560ff166116fe565b3480156104b157600080fd5b5061035d600480360360408110156104c857600080fd5b506001600160a01b038135169060200135611b97565b3480156104ea57600080fd5b5061035d611fe0565b3480156104ff57600080fd5b5061035d6004803603604081101561051657600080fd5b50803590602001356120b7565b34801561052f57600080fd5b506105386120ff565b604080519115158252519081900360200190f35b34801561055857600080fd5b5061057f6004803603602081101561056f57600080fd5b50356001600160a01b0316612108565b6040805163ffffffff90951685526020850193909352838301919091526060830152519081900360800190f35b3480156105b857600080fd5b50610336612137565b3480156105cd57600080fd5b50610336600480360360208110156105e457600080fd5b503561213d565b3480156105f757600080fd5b5061035d612152565b34801561060c57600080fd5b506103366004803603602081101561062357600080fd5b5035612213565b34801561063657600080fd5b5061063f612220565b6040805161ffff9092168252519081900360200190f35b34801561066257600080fd5b5061035d6004803603602081101561067957600080fd5b50356001600160a01b031661222a565b34801561069557600080fd5b5061035d600480360360a08110156106ac57600080fd5b506001600160a01b038135169060208101359060408101359060ff6060820135169060800135612237565b3480156106e357600080fd5b5061035d600480360360608110156106fa57600080fd5b508035906020810135906040013561224b565b34801561071957600080fd5b5061035d6004803603604081101561073057600080fd5b508035906020013560ff16612295565b34801561074c57600080fd5b50610755612434565b604080516001600160a01b039092168252519081900360200190f35b34801561077d57600080fd5b50610336612443565b34801561079257600080fd5b5061035d600480360360608110156107a957600080fd5b5080359060208101359060400135612449565b3480156107c857600080fd5b5061035d600480360360208110156107df57600080fd5b5035612454565b3480156107f257600080fd5b5061035d61245d565b34801561080757600080fd5b5061082e6004803603602081101561081e57600080fd5b50356001600160a01b0316612526565b6040805160ff909616865261ffff90941660208601528484019290925260608401526080830152519081900360a00190f35b34801561086c57600080fd5b506103366004803603602081101561088357600080fd5b503561255b565b34801561089657600080fd5b5061035d600480360360408110156108ad57600080fd5b508035906020013560ff16612569565b3480156108c957600080fd5b5061035d600480360360608110156108e057600080fd5b508035906020810135906040013560ff16612b78565b34801561090257600080fd5b5061035d600480360361012081101561091a57600080fd5b6001600160a01b038235811692602081013582169260408201359092169160608201359162ffffff6080820135169163ffffffff60a083013516919081019060e0810160c082013564010000000081111561097457600080fd5b82018360208201111561098657600080fd5b803590602001918460208302840111640100000000831117156109a857600080fd5b91908080602002602001604051908101604052809392919081815260200183836020028082843760009201919091525092959493602081019350359150506401000000008111156109f857600080fd5b820183602082011115610a0a57600080fd5b80359060200191846020830284011164010000000083111715610a2c57600080fd5b919080806020026020016040519081016040528093929190818152602001838360200280828437600092019190915250929550505090356001600160a01b03169150612f3e9050565b348015610a8157600080fd5b5061033660048036036020811015610a9857600080fd5b5035613643565b348015610aab57600080fd5b5061035d60048036036080811015610ac257600080fd5b5080359060208101359060408101359060600135613651565b348015610ae757600080fd5b5061035d61369d565b348015610afc57600080fd5b50610336613b46565b348015610b1157600080fd5b5061035d60048036036020811015610b2857600080fd5b50356001600160a01b0316613b4c565b348015610b4457600080fd5b50610336613c6e565b348015610b5957600080fd5b50610336613c74565b60cc5481565b610b706120ff565b15610bb5576040805162461bcd60e51b815260206004820152601060248201526f14185d5cd8589b194e881c185d5cd95960821b604482015290519081900360640190fd5b61012a544311610c0c576040805162461bcd60e51b815260206004820152601160248201527f45474c3a414c52454144595f5357455054000000000000000000000000000000604482015290519081900360640190fd5b4361012a5560c95460cc544591600091610c27918491613c7a565b90508015610dba5761012d54610c43908263ffffffff613e5d16565b61012d5560d154610c5a908263ffffffff613ebf16565b60d15561012154604080516370a0823160e01b815230600482015290516000926001600160a01b03169163a9059cbb914191610ce99185916370a08231916024808301926020929190829003018186803b158015610cb757600080fd5b505afa158015610ccb573d6000803e3d6000fd5b505050506040513d6020811015610ce157600080fd5b505186613f20565b6040518363ffffffff1660e01b815260040180836001600160a01b03166001600160a01b0316815260200182815260200192505050602060405180830381600087803b158015610d3857600080fd5b505af1158015610d4c573d6000803e3d6000fd5b505050506040513d6020811015610d6257600080fd5b5051905080610db8576040805162461bcd60e51b815260206004820152601960248201527f45474c3a544f4b454e5f5452414e534645525f4641494c454400000000000000604482015290519081900360640190fd5b505b61012a54604080513381524160208201528082019290925260608201849052608082018390524260a0830152517f0f6068cc0327366c9f8c4d052cf3e449a720815635c94fd32f6cf7b6af710e479181900360c00190a15050565b60ca5481565b610e288585858585613f36565b505050505050565b6101206020526000908152604090205481565b610e4b6120ff565b15610e90576040805162461bcd60e51b815260206004820152601060248201526f14185d5cd8589b194e881c185d5cd95960821b604482015290519081900360640190fd5b6101285460d054610eb19163ffffffff6301000000909104811690613ebf16565b4211610f04576040805162461bcd60e51b815260206004820152601260248201527f45474c3a564f54455f4e4f545f454e4445440000000000000000000000000000604482015290519081900360640190fd5b4560cc556101395460cf5460009161ffff90811691161115610f3e57610f39670de0b6b3a7640000601e63ffffffff61413b16565b610f57565b610f57670de0b6b3a7640000600a63ffffffff61413b16565b60cf54909150603461ffff90911610611006576000610fed610fe0610f9a610f876034600163ffffffff613e5d16565b60cf5461ffff169063ffffffff613e5d16565b610fd4610faf6034600263ffffffff61413b16565b610fc8670de0b6b3a7640000601463ffffffff61413b16565b9063ffffffff61419416565b9063ffffffff61413b16565b839063ffffffff613ebf16565b9050611002816802b5e3af16b1880000613f20565b9150505b61010e54600090611018576000611029565b61010e546101165461102991614194565b9050600061103b6101068201546141fb565b90508281106111d15760cc546101255461105a9163ffffffff61423116565b610125556101265461107390600163ffffffff61423116565b6101268190556101255461108c9163ffffffff61429616565b60ca81905582126110d6576110d16110c2610127546110b660ca548661434e90919063ffffffff16565b9063ffffffff6143b316565b60ca549063ffffffff61423116565b611104565b6111046110f5610127546110b68560ca5461434e90919063ffffffff16565b60ca549063ffffffff61434e16565b60c95560cc5461111c9061271063ffffffff61434e16565b60c95412158015611143575060cc5461113d9061271063ffffffff61423116565b60c95413155b1561114f5760cc5460c9555b60cf5460c954610125546101265460ca546040805133815261ffff909616602087015285810194909452606085018890526080850186905260a085019290925260c084015260e083015242610100830152517f7f9ed4e6a05937b6f9fcaa91c2fe6f6ba0b0a7dc309b7e15367d08b8b5c044f5918190036101200190a161130e565b61013954610128546111f991630100000090910463ffffffff9081169161ffff169061413b16565b6101295461120e90429063ffffffff613e5d16565b1061123e5761123a606461122e605f60cc546143c290919063ffffffff16565b9063ffffffff61429616565b60c9555b7fd4c520fe18c4d747998b5ff21f876ecb67cc070b489476dfe74fa89675684bb03360cf60009054906101000a900461ffff1660c954868560ca5460cb546112926101295442613e5d90919063ffffffff16565b610128546112b39063ffffffff630100000090910481169060069061413b16565b604080516001600160a01b03909a168a5261ffff90981660208a0152888801969096526060880194909452608087019290925260a086015260c085015260e08401526101008301524261012083015251908190036101400190a15b60005b60078160ff1610156113a05761010e8160010160ff166008811061133157fe5b015461010e8260ff166008811061134457fe5b015561011660ff60018301166008811061135a57fe5b01546101168260ff166008811061136d57fe5b015561010660ff60018301166008811061138357fe5b01546101068260ff166008811061139657fe5b0155600101611311565b50600061011581905561011d81905561010d8190556101258190556101265561012c5460cf5461ffff16108015906113db5750600061012e54115b156113f05760cf546113f09061ffff1661446b565b60cf805461ffff8082166001011661ffff199091161790556101285460d0546114299163ffffffff6301000000909104811690613ebf16565b60d05560cf5460c95460ca5460d1546040805133815260001961ffff96871601909516602086015284810193909352606084018690526080840187905260a0840185905260c084019190915260e083015242610100830152517fa71bedc4f3aa50ccced26d41681c0b9a0a257cff099beda501702ef03d0f5fb8918190036101200190a1505050565b6114ba6120ff565b156114ff576040805162461bcd60e51b815260206004820152601060248201526f14185d5cd8589b194e881c185d5cd95960821b604482015290519081900360640190fd5b33600090815261011e6020526040902060020154611554576040805162461bcd60e51b815260206004820152600d60248201526c1151d30e9393d517d593d51151609a1b604482015290519081900360640190fd5b33600090815261011e602052604090206001015442116115bb576040805162461bcd60e51b815260206004820152601460248201527f45474c3a4e4f545f52454c454153455f44415445000000000000000000000000604482015290519081900360640190fd5b610121546000906001600160a01b031663a9059cbb336115da81614691565b6040518363ffffffff1660e01b815260040180836001600160a01b03166001600160a01b0316815260200182815260200192505050602060405180830381600087803b15801561162957600080fd5b505af115801561163d573d6000803e3d6000fd5b505050506040513d602081101561165357600080fd5b50519050806116a9576040805162461bcd60e51b815260206004820152601960248201527f45474c3a544f4b454e5f5452414e534645525f4641494c454400000000000000604482015290519081900360640190fd5b50565b60d181905560006116bc836141fb565b6040805182815290519192507f7e7e5f44ddc2776c4ccd52d44b8a7a4f55503c4ae54907bb06a31c38efe71ff8919081900360200190a1505050565b60ce5481565b6117066120ff565b1561174b576040805162461bcd60e51b815260206004820152601060248201526f14185d5cd8589b194e881c185d5cd95960821b604482015290519081900360640190fd5b600260975414156117a3576040805162461bcd60e51b815260206004820152601f60248201527f5265656e7472616e637947756172643a207265656e7472616e742063616c6c00604482015290519081900360640190fd5b6002609781905533600090815261011e6020526040902001546117fd576040805162461bcd60e51b815260206004820152600d60248201526c1151d30e9393d517d593d51151609a1b604482015290519081900360640190fd5b8115611ad857670de0b6b3a7640000821015611860576040805162461bcd60e51b815260206004820152601060248201527f45474c3a414d4e545f544f4f5f4c4f5700000000000000000000000000000000604482015290519081900360640190fd5b61012154604080516370a0823160e01b815233600482015290516001600160a01b03909216916370a0823191602480820192602092909190829003018186803b1580156118ac57600080fd5b505afa1580156118c0573d6000803e3d6000fd5b505050506040513d60208110156118d657600080fd5b505182111561192c576040805162461bcd60e51b815260206004820152601c60248201527f45474c3a494e53554646494349454e545f45474c5f42414c414e434500000000604482015290519081900360640190fd5b6101215460408051636eb1769f60e11b8152336004820152306024820152905184926001600160a01b03169163dd62ed3e916044808301926020929190829003018186803b15801561197d57600080fd5b505afa158015611991573d6000803e3d6000fd5b505050506040513d60208110156119a757600080fd5b505110156119fc576040805162461bcd60e51b815260206004820152601a60248201527f45474c3a494e53554646494349454e545f414c4c4f57414e4345000000000000604482015290519081900360640190fd5b61012154604080516323b872dd60e01b81523360048201523060248201526044810185905290516000926001600160a01b0316916323b872dd91606480830192602092919082900301818787803b158015611a5657600080fd5b505af1158015611a6a573d6000803e3d6000fd5b505050506040513d6020811015611a8057600080fd5b5051905080611ad6576040805162461bcd60e51b815260206004820152601960248201527f45474c3a544f4b454e5f5452414e534645525f4641494c454400000000000000604482015290519081900360640190fd5b505b6101285460d054611af99163ffffffff6301000000909104811690613ebf16565b421115611b0857611b08610e43565b33600081815261011e602052604090206001015490611b3790611b2a90614691565b849063ffffffff613ebf16565b9250611b4633858585856149cf565b604080513381526020810186905280820185905242606082015290517f7557e999fc50cf5217e7120750c6e75d826f9facea381db8a7cbe7a2350d061f9181900360800190a1505060016097555050565b611b9f614f8e565b6001600160a01b0316611bb0612434565b6001600160a01b031614611c0b576040805162461bcd60e51b815260206004820181905260248201527f4f776e61626c653a2063616c6c6572206973206e6f7420746865206f776e6572604482015290519081900360640190fd5b61013054811115611c63576040805162461bcd60e51b815260206004820152601d60248201527f45474c3a494e53554646494349454e545f534545445f42414c414e4345000000604482015290519081900360640190fd5b6001600160a01b0382166000908152610120602052604090205415611ccf576040805162461bcd60e51b815260206004820152601260248201527f45474c3a414c52454144595f5345454445520000000000000000000000000000604482015290519081900360640190fd5b6001600160a01b038216600090815261011e602052604090206002015415611d3e576040805162461bcd60e51b815260206004820152601460248201527f45474c3a414c52454144595f4841535f564f5445000000000000000000000000604482015290519081900360640190fd5b61012154604080516370a0823160e01b81526001600160a01b038581166004830152915191909216916370a08231916024808301926020929190829003018186803b158015611d8c57600080fd5b505afa158015611da0573d6000803e3d6000fd5b505050506040513d6020811015611db657600080fd5b505115611e0a576040805162461bcd60e51b815260206004820152601460248201527f45474c3a414c52454144595f4841535f45474c53000000000000000000000000604482015290519081900360640190fd5b61012b5461012954611e219163ffffffff613ebf16565b4210611e74576040805162461bcd60e51b815260206004820152601660248201527f45474c3a534545445f504552494f445f50415353454400000000000000000000604482015290519081900360640190fd5b6101235460408051630fb6a4a160e11b81526001600160a01b03858116600483015291516000939290921691631f6d494291602480820192608092909190829003018186803b158015611ec657600080fd5b505afa158015611eda573d6000803e3d6000fd5b505050506040513d6080811015611ef057600080fd5b505190508015611f47576040805162461bcd60e51b815260206004820152601260248201527f45474c3a49535f434f4e5452494255544f520000000000000000000000000000604482015290519081900360640190fd5b61013054611f5b908363ffffffff613e5d16565b6101305561012f54611f73908363ffffffff613e5d16565b61012f556001600160a01b0383166000818152610120602090815260409182902085905561013054825193845290830185905282820152426060830152517f9b861f4745a65efa4f8e7442d37a07edf7decd32b164b4af64ab50370a7bd28d9181900360800190a1505050565b611fe8614f8e565b6001600160a01b0316611ff9612434565b6001600160a01b031614612054576040805162461bcd60e51b815260206004820181905260248201527f4f776e61626c653a2063616c6c6572206973206e6f7420746865206f776e6572604482015290519081900360640190fd5b61205c6120ff565b6120ad576040805162461bcd60e51b815260206004820152601460248201527f5061757361626c653a206e6f7420706175736564000000000000000000000000604482015290519081900360640190fd5b6120b5614f92565b565b60006120c3838361503b565b6040805182815290519192507fa15a35c9dd45af4fd008fbe269d5e5ed70b110228a45c2f074d793211f6cab13919081900360200190a1505050565b60655460ff1690565b61011f60205260009081526040902080546001820154600283015460039093015463ffffffff90921692909184565b60d05481565b61010e816008811061214b57fe5b0154905081565b61215a614f8e565b6001600160a01b031661216b612434565b6001600160a01b0316146121c6576040805162461bcd60e51b815260206004820181905260248201527f4f776e61626c653a2063616c6c6572206973206e6f7420746865206f776e6572604482015290519081900360640190fd5b6040805162461bcd60e51b815260206004820152601960248201527f45474c3a4e4f5f52454e4f554e43455f4f574e45525348495000000000000000604482015290519081900360640190fd5b60d2816034811061214b57fe5b60cf5461ffff1681565b61223381614691565b5050565b61224485858585856149cf565b5050505050565b60006122588484846150ea565b6040805182815290519192507f37073877a1e36a85046b3dbc7466845ed97b7faae7a45d81183357155c563dae919081900360200190a150505050565b61229d6120ff565b156122e2576040805162461bcd60e51b815260206004820152601060248201526f14185d5cd8589b194e881c185d5cd95960821b604482015290519081900360640190fd5b3360009081526101206020526040902054612344576040805162461bcd60e51b815260206004820152600e60248201527f45474c3a4e4f545f534545444552000000000000000000000000000000000000604482015290519081900360640190fd5b6101285460d0546123659163ffffffff6301000000909104811690613ebf16565b42111561237457612374610e43565b33600090815261012060205260408120805491905560d15461239c908263ffffffff613ebf16565b60d155610128546000906123d7906123c79063ffffffff630100000090910481169060349061413b16565b610129549063ffffffff613ebf16565b604080513381526020810185905280820183905242606082015290519192507f5356d501c5681bc11ad4a79b7bdf2821e62fbf883e09cd63546edef197d10a12919081900360800190a161242e33858486856149cf565b50505050565b6033546001600160a01b031690565b60c95481565b61242e838383613c7a565b6116a98161446b565b612465614f8e565b6001600160a01b0316612476612434565b6001600160a01b0316146124d1576040805162461bcd60e51b815260206004820181905260248201527f4f776e61626c653a2063616c6c6572206973206e6f7420746865206f776e6572604482015290519081900360640190fd5b6124d96120ff565b1561251e576040805162461bcd60e51b815260206004820152601060248201526f14185d5cd8589b194e881c185d5cd95960821b604482015290519081900360640190fd5b6120b561523a565b61011e60205260009081526040902080546001820154600283015460039093015460ff83169361010090930461ffff16929085565b610116816008811061214b57fe5b6125716120ff565b156125b6576040805162461bcd60e51b815260206004820152601060248201526f14185d5cd8589b194e881c185d5cd95960821b604482015290519081900360640190fd5b6000610131541161260e576040805162461bcd60e51b815260206004820152601b60248201527f45474c3a535550504f525445525f45474c535f4445504c455445440000000000604482015290519081900360640190fd5b60006101325411612666576040805162461bcd60e51b815260206004820152601860248201527f45474c3a4250545f42414c414e43455f4445504c455445440000000000000000604482015290519081900360640190fd5b61012360009054906101000a90046001600160a01b03166001600160a01b03166340b982536040518163ffffffff1660e01b815260040160206040518083038186803b1580156126b557600080fd5b505afa1580156126c9573d6000803e3d6000fd5b505050506040513d60208110156126df57600080fd5b5051158015612766575061012360009054906101000a90046001600160a01b03166001600160a01b031663b51459fe6040518163ffffffff1660e01b815260040160206040518083038186803b15801561273857600080fd5b505afa15801561274c573d6000803e3d6000fd5b505050506040513d602081101561276257600080fd5b5051155b6127b7576040805162461bcd60e51b815260206004820152601260248201527f45474c3a47454e455349535f4c4f434b45440000000000000000000000000000604482015290519081900360640190fd5b33600090815261011f602052604090205463ffffffff1615612820576040805162461bcd60e51b815260206004820152601360248201527f45474c3a414c52454144595f434c41494d454400000000000000000000000000604482015290519081900360640190fd5b6101235460408051630fb6a4a160e11b8152336004820152905160009283926001600160a01b0390911691631f6d494291602480820192608092909190829003018186803b15801561287157600080fd5b505afa158015612885573d6000803e3d6000fd5b505050506040513d608081101561289b57600080fd5b5080516020909101519092509050816128fb576040805162461bcd60e51b815260206004820152601360248201527f45474c3a4e4f545f434f4e545249425554454400000000000000000000000000604482015290519081900360640190fd5b6101285460d05461291c9163ffffffff6301000000909104811690613ebf16565b42111561292b5761292b610e43565b600061294f670de0b6b3a7640000610fc8610135548661413b90919063ffffffff16565b90506000612979670de0b6b3a7640000610fc861013554610fd48888613e5d90919063ffffffff16565b9050600061298d828463ffffffff613ebf16565b905060006129a761299e848461503b565b61013154613f20565b905060006129d96129d0670de0b6b3a7640000610fc8610136548b61413b90919063ffffffff16565b61013254613f20565b610131549091506129f0908363ffffffff613e5d16565b6101315561013254612a08908263ffffffff613e5d16565b6101325560d154612a1f908363ffffffff613ebf16565b60d181905550600061011f6000336001600160a01b03166001600160a01b03168152602001908152602001600020905060018160000160006101000a81548163ffffffff021916908363ffffffff1602179055508181600101819055508481600201819055508381600301819055507f549881d5c1efb822f02dcb03f7b2f19e5a1b9cd8676fee72c4669c205ac95a7533898c8c61013554610136548989610131546101325442604051808c6001600160a01b03166001600160a01b031681526020018b81526020018a81526020018960ff1681526020018881526020018781526020018681526020018581526020018481526020018381526020018281526020019b50505050505050505050505060405180910390a161012854612b6c9033908c9086908d90612b67906123c79063ffffffff630100000090910481169060349061413b16565b6149cf565b50505050505050505050565b612b806120ff565b15612bc5576040805162461bcd60e51b815260206004820152601060248201526f14185d5cd8589b194e881c185d5cd95960821b604482015290519081900360640190fd5b60026097541415612c1d576040805162461bcd60e51b815260206004820152601f60248201527f5265656e7472616e637947756172643a207265656e7472616e742063616c6c00604482015290519081900360640190fd5b6002609755670de0b6b3a7640000821015612c7f576040805162461bcd60e51b815260206004820152601060248201527f45474c3a414d4e545f544f4f5f4c4f5700000000000000000000000000000000604482015290519081900360640190fd5b61012154604080516370a0823160e01b815233600482015290516001600160a01b03909216916370a0823191602480820192602092909190829003018186803b158015612ccb57600080fd5b505afa158015612cdf573d6000803e3d6000fd5b505050506040513d6020811015612cf557600080fd5b5051821115612d4b576040805162461bcd60e51b815260206004820152601c60248201527f45474c3a494e53554646494349454e545f45474c5f42414c414e434500000000604482015290519081900360640190fd5b6101215460408051636eb1769f60e11b8152336004820152306024820152905184926001600160a01b03169163dd62ed3e916044808301926020929190829003018186803b158015612d9c57600080fd5b505afa158015612db0573d6000803e3d6000fd5b505050506040513d6020811015612dc657600080fd5b50511015612e1b576040805162461bcd60e51b815260206004820152601a60248201527f45474c3a494e53554646494349454e545f414c4c4f57414e4345000000000000604482015290519081900360640190fd5b6101285460d054612e3c9163ffffffff6301000000909104811690613ebf16565b421115612e4b57612e4b610e43565b61012154604080516323b872dd60e01b81523360048201523060248201526044810185905290516000926001600160a01b0316916323b872dd91606480830192602092919082900301818787803b158015612ea557600080fd5b505af1158015612eb9573d6000803e3d6000fd5b505050506040513d6020811015612ecf57600080fd5b5051905080612f25576040805162461bcd60e51b815260206004820152601960248201527f45474c3a544f4b454e5f5452414e534645525f4641494c454400000000000000604482015290519081900360640190fd5b612f333385858560006149cf565b505060016097555050565b600054610100900460ff1680612f575750612f576152bd565b80612f65575060005460ff16155b612fa05760405162461bcd60e51b815260040180806020018281038252602e8152602001806156f3602e913960400191505060405180910390fd5b600054610100900460ff16158015612fcb576000805460ff1961ff0019909116610100171660011790555b6001600160a01b038a16613026576040805162461bcd60e51b815260206004820152601a60248201527f45474c3a494e56414c49445f45474c5f544f4b454e5f41444452000000000000604482015290519081900360640190fd5b6001600160a01b038916613081576040805162461bcd60e51b815260206004820152601960248201527f45474c3a494e56414c49445f42505f544f4b454e5f4144445200000000000000604482015290519081900360640190fd5b6001600160a01b0388166130dc576040805162461bcd60e51b815260206004820152601860248201527f45474c3a494e56414c49445f47454e455349535f414444520000000000000000604482015290519081900360640190fd5b6130e46152ce565b6130ec61536f565b6130f4615475565b6130fc615520565b61012180546001600160a01b03808d1673ffffffffffffffffffffffffffffffffffffffff199283161790925561012280548c841690831617905561012380548b8416921691909117908190556b026c62ad77dc602dae00000060cd81905561012e81905560ce556b0409f9cbc7c4a04c2200000061012d556acecb8f27f4200f3a00000061012f556a295be96e64066972000000610130556b019d971e4fe8401e7400000061013181905561013355694cd5d9c0f8633ab6000061013755604080517f4b472d4500000000000000000000000000000000000000000000000000000000815290516000939290921691634b472d4591600480820192602092909190829003018186803b15801561321257600080fd5b505afa158015613226573d6000803e3d6000fd5b505050506040513d602081101561323c57600080fd5b5051905080613292576040805162461bcd60e51b815260206004820152601660248201527f45474c3a4e4f5f47454e455349535f42414c414e434500000000000000000000604482015290519081900360640190fd5b6101225461012354604080517f8da5cb5b00000000000000000000000000000000000000000000000000000000815290516001600160a01b03938416936370a08231931691638da5cb5b916004808301926020929190829003018186803b1580156132fc57600080fd5b505afa158015613310573d6000803e3d6000fd5b505050506040513d602081101561332657600080fd5b5051604080517fffffffff0000000000000000000000000000000000000000000000000000000060e085901b1681526001600160a01b039092166004830152516024808301926020929190829003018186803b15801561338557600080fd5b505afa158015613399573d6000803e3d6000fd5b505050506040513d60208110156133af57600080fd5b5051610132819055613408576040805162461bcd60e51b815260206004820152601260248201527f45474c3a4e4f5f4250545f42414c414e43450000000000000000000000000000604482015290519081900360640190fd5b61342981610fc8670de0b6b3a764000060ce5461413b90919063ffffffff16565b610135556101325461344f908290610fc890670de0b6b3a764000063ffffffff61413b16565b61013655600a61012c81905561346f9063ffffffff808916919061413b16565b61012b5561012988905560d0889055610128805462ffffff191662ffffff89161766ffffffff0000001916630100000063ffffffff891602179055610124805473ffffffffffffffffffffffffffffffffffffffff19166001600160a01b03851617905560ce5460d1554560cc81905560ca81905560cb81905560c955623d090061013855620f424061012755610139805461ffff191660071790558451156135615760005b85518160ff16101561355f57613557868260ff168151811061353357fe5b6020026020010151868360ff168151811061354a57fe5b6020026020010151611b97565b600101613515565b505b610121546101235461012254610135546101365461012b546101295461012854604080513381523060208201526001600160a01b03998a1681830152978916606089015297909516608087015260a0860188905260c086019390935260e085019190915261010084015261012083015262ffffff81166101408301526301000000900463ffffffff166101608201524261018082015290517f401428870815f31693733424c16dc30342fbc7bdfea981e09c5dd9762612aec5916101a0908290030190a1508015612b6c576000805461ff001916905550505050505050505050565b610106816008811061214b57fe5b600061365f858585856155c6565b6040805182815290519192507f4559bb1fd8d38ac4225e2e69ac3391fa694f480b89635e5e4d729f3e89794112919081900360200190a15050505050565b6136a56120ff565b156136ea576040805162461bcd60e51b815260206004820152601060248201526f14185d5cd8589b194e881c185d5cd95960821b604482015290519081900360640190fd5b33600090815261011f602052604090206001015461374f576040805162461bcd60e51b815260206004820152601260248201527f45474c3a4e4f5f504f4f4c5f544f4b454e530000000000000000000000000000604482015290519081900360640190fd5b61012b546101295461376890429063ffffffff613e5d16565b116137ba576040805162461bcd60e51b815260206004820152601560248201527f45474c3a414c4c5f544f4b454e535f4c4f434b45440000000000000000000000604482015290519081900360640190fd5b60006137e16137d56101295442613e5d90919063ffffffff16565b60ce5461012b546150ea565b33600090815261011e6020908152604080832061011f9092529091206002810154929350909183101561385b576040805162461bcd60e51b815260206004820152601660248201527f45474c3a414444525f544f4b454e535f4c4f434b454400000000000000000000604482015290519081900360640190fd5b600081600301548410613969575060018101805460009182905583549091906138969061ffff6101008204169060ff1663ffffffff613ebf16565b60cf5490915061ffff1681116138ac57426138ea565b6101285460cf546138ea916138dd91630100000090910463ffffffff90811691610fd491869161ffff1690613e5d16565b429063ffffffff613ebf16565b60018086018290558401546002850154600386015460408051338152602081018b90528082018890526060810194909452608084019290925260a083015260c08201929092524260e082015290517fac4593ed445180692482b7c9eaf84f6aca0944f23272e84eed00ab30ba39214a918190036101000190a150613a1d565b613981848360020154846003015485600101546155c6565b6001830154909150613999908263ffffffff613e5d16565b6001808401829055600284015460038501549186015460408051338152602081018a90528082018790526060810195909552608085019290925260a084019290925260c08301919091524260e0830152517fac4593ed445180692482b7c9eaf84f6aca0944f23272e84eed00ab30ba39214a918190036101000190a1600282018490555b61012254604080516370a0823160e01b815230600482015290516000926001600160a01b03169163a9059cbb913391613a779185916370a08231916024808301926020929190829003018186803b158015610cb757600080fd5b6040518363ffffffff1660e01b815260040180836001600160a01b03166001600160a01b0316815260200182815260200192505050602060405180830381600087803b158015613ac657600080fd5b505af1158015613ada573d6000803e3d6000fd5b505050506040513d6020811015613af057600080fd5b5051905080612244576040805162461bcd60e51b815260206004820152601960248201527f45474c3a544f4b454e5f5452414e534645525f4641494c454400000000000000604482015290519081900360640190fd5b60cd5481565b613b54614f8e565b6001600160a01b0316613b65612434565b6001600160a01b031614613bc0576040805162461bcd60e51b815260206004820181905260248201527f4f776e61626c653a2063616c6c6572206973206e6f7420746865206f776e6572604482015290519081900360640190fd5b6001600160a01b038116613c055760405162461bcd60e51b81526004018080602001828103825260268152602001806156ac6026913960400191505060405180910390fd5b6033546040516001600160a01b038084169216907f8be0079c531659141344cd1fd0a4f28419497f9722a3daafe3b4186f6b6457e090600090a36033805473ffffffffffffffffffffffffffffffffffffffff19166001600160a01b0392909216919091179055565b60d15481565b60cb5481565b600080600080613c8a8587615673565b90506000613c988689615673565b90506000613cae8861271063ffffffff61423116565b90506000613cc48961271063ffffffff61434e16565b9050808a12158015613cd65750818a13155b15613cfb57613cf4670de0b6b3a7640000606463ffffffff61413b16565b9550613d94565b600084138015613d4057508789138015613d145750878a135b8015613d205750818a13155b80613d4057508789128015613d345750878a125b8015613d405750808a12155b15613d9457613d66604b610fd48661122e87670de0b6b3a764000063ffffffff6143c216565b9450613d91613d84670de0b6b3a7640000601963ffffffff61413b16565b869063ffffffff613ebf16565b95505b613dce6064610fc8670de0b6b3a7640000610fc8613dc1622625a061012d5461419490919063ffffffff16565b8b9063ffffffff61413b16565b60cf5461012d546040805143815261ffff909316602084015282810191909152606082018d9052608082018c905260a082018b905260c0820188905260e08201899052610100820183905242610120830152519198507f7b567a10ebda9fc8530b066718cc2fa3c6fd42d5df71f9f8bc176ff6673972c391908190036101400190a15050505050509392505050565b600082821115613eb4576040805162461bcd60e51b815260206004820152601e60248201527f536166654d6174683a207375627472616374696f6e206f766572666c6f770000604482015290519081900360640190fd5b508082035b92915050565b600082820183811015613f19576040805162461bcd60e51b815260206004820152601b60248201527f536166654d6174683a206164646974696f6e206f766572666c6f770000000000604482015290519081900360640190fd5b9392505050565b6000818310613f2f5781613f19565b5090919050565b60006001600160a01b038616613f93576040805162461bcd60e51b815260206004820152601360248201527f45474c3a564f5445525f414444524553535f3000000000000000000000000000604482015290519081900360640190fd5b6000613fc36034613fb761ffff808a169082908a1660ff8a1663ffffffff613ebf16565b9063ffffffff613f2016565b9050845b818161ffff1610156141305760008060d28361ffff1660348110613fe757fe5b015411613ff5576000614044565b61404461403b60d28461ffff166034811061400c57fe5b0154610fc8614026603461ffff881663ffffffff613e5d16565b61013754610fd4908b9063ffffffff61413b16565b61013354613f20565b9050614056848263ffffffff613ebf16565b6101335490945061406d908263ffffffff613e5d16565b61013355610137547fbaca11360eaa23c73342d15d8db586271a7c9d9ee0a0c7ae8eda2e3f9c4add0a908a908a90879085908a906140b6603461ffff8b1663ffffffff613e5d16565b60d28a61ffff16603481106140c757fe5b015461013354604080516001600160a01b03909a168a5261ffff90981660208a0152888801969096526060880194909452608087019290925260a086015260c085015260e08401526101008301524261012083015251908190036101400190a150600101613fc7565b505095945050505050565b60008261414a57506000613eb9565b8282028284828161415757fe5b0414613f195760405162461bcd60e51b81526004018080602001828103825260218152602001806157426021913960400191505060405180910390fd5b60008082116141ea576040805162461bcd60e51b815260206004820152601a60248201527f536166654d6174683a206469766973696f6e206279207a65726f000000000000604482015290519081900360640190fd5b8183816141f357fe5b049392505050565b60008060d1541161420d576000613eb9565b60d154613eb990610fc86064610fd486670de0b6b3a764000063ffffffff61413b16565b60008282018183128015906142465750838112155b8061425b575060008312801561425b57508381125b613f195760405162461bcd60e51b81526004018080602001828103825260218152602001806156d26021913960400191505060405180910390fd5b6000816142ea576040805162461bcd60e51b815260206004820181905260248201527f5369676e6564536166654d6174683a206469766973696f6e206279207a65726f604482015290519081900360640190fd5b816000191480156142fe5750600160ff1b83145b1561433a5760405162461bcd60e51b81526004018080602001828103825260218152602001806157216021913960400191505060405180910390fd5b600082848161434557fe5b05949350505050565b60008183038183128015906143635750838113155b80614378575060008312801561437857508381135b613f195760405162461bcd60e51b815260040180806020018281038252602481526020018061578a6024913960400191505060405180910390fd5b6000818312613f2f5781613f19565b6000826143d157506000613eb9565b826000191480156143e55750600160ff1b82145b156144215760405162461bcd60e51b81526004018080602001828103825260278152602001806157636027913960400191505060405180910390fd5b8282028284828161442e57fe5b0514613f195760405162461bcd60e51b81526004018080602001828103825260278152602001806157636027913960400191505060405180910390fd5b610128546000906144bc9061449290849063ffffffff630100000090910481169061413b16565b60cd546101285461012c546144b79163ffffffff630100000090910481169061413b16565b6150ea565b905060008082116144ce5760006144eb565b6144eb61012e54613fb76101345485613e5d90919063ffffffff16565b6101215461012454604080517fa9059cbb0000000000000000000000000000000000000000000000000000000081526001600160a01b039283166004820152602481018590529051939450600093919092169163a9059cbb91604480830192602092919082900301818787803b15801561456457600080fd5b505af1158015614578573d6000803e3d6000fd5b505050506040513d602081101561458e57600080fd5b50519050806145e4576040805162461bcd60e51b815260206004820152601960248201527f45474c3a544f4b454e5f5452414e534645525f4641494c454400000000000000604482015290519081900360640190fd5b61012e546145f8908363ffffffff613e5d16565b61012e5560d15461460f908363ffffffff613ebf16565b60d155610124546101345461012e5460cf54604080513381526001600160a01b0390951660208601528481018790526060850193909352608084019190915261ffff1660a08301524260c0830152517fb8eb1858344dfad27243fc861330eea15630cddc1d8c5c4eb9a72bb059aae54b9181900360e00190a150506101345550565b60006001600160a01b0382166146ee576040805162461bcd60e51b815260206004820152601360248201527f45474c3a564f5445525f414444524553535f3000000000000000000000000000604482015290519081900360640190fd5b6001600160a01b038216600090815261011e60205260408120805460028201805460038401805462ffffff19851686556001860187905592869055859055929361ffff610100840416939260ff16919061474e848463ffffffff61413b16565b60cf54909150600090614769908a9061ffff16888786613f36565b9050600061478461ffff881660ff871663ffffffff613ebf16565b60cf5490915060009061ffff16821161479e5760006147b6565b60cf546147b690839061ffff1663ffffffff613e5d16565b905060005b818160ff1610156148dd576147e98561010e8360ff16600881106147db57fe5b01549063ffffffff613e5d16565b61010e8260ff16600881106147fa57fe5b015561482061480f868863ffffffff61413b16565b6101168360ff16600881106147db57fe5b6101168260ff166008811061483157fe5b015560cf546034906148509061ffff1660ff841663ffffffff613ebf16565b10156148ad5760cf5461488390869060d2906148799061ffff1660ff861663ffffffff613ebf16565b603481106147db57fe5b60cf5460d2906148a09061ffff1660ff851663ffffffff613ebf16565b603481106148aa57fe5b01555b6148c2886101068360ff16600881106147db57fe5b6101068260ff16600881106148d357fe5b01556001016147bb565b5060d1546148f1908463ffffffff613ebf16565b60d15560cf547fe0b45c9063ac79a1ba771cbe0d96ebb606253f393afdf9bd0bb9b2bc7eb16487908c9061ffff1689868960348410614931576000614948565b60cf5460d29061ffff166034811061494557fe5b01545b6101065461010e5461011654604080516001600160a01b039a909a168a5261ffff9890981660208a0152888801969096526060880194909452608087019290925260a086015260c085015260e08401526101008301524261012083015251908190036101400190a16149c0878463ffffffff613ebf16565b9b9a5050505050505050505050565b6001600160a01b038516614a2a576040805162461bcd60e51b815260206004820152601360248201527f45474c3a564f5445525f414444524553535f3000000000000000000000000000604482015290519081900360640190fd5b61012954421015614a82576040805162461bcd60e51b815260206004820152601660248201527f45474c3a564f54494e475f4e4f545f5354415254454400000000000000000000604482015290519081900360640190fd5b6001600160a01b038516600090815261011e602052604090206002015415614af1576040805162461bcd60e51b815260206004820152601160248201527f45474c3a414c52454144595f564f544544000000000000000000000000000000604482015290519081900360640190fd5b61013854614aff8545615684565b10614b51576040805162461bcd60e51b815260206004820152601660248201527f45474c3a494e56414c49445f4741535f54415247455400000000000000000000604482015290519081900360640190fd5b60018260ff1610158015614b69575060088260ff1611155b614bba576040805162461bcd60e51b815260206004820152601260248201527f45474c3a494e56414c49445f4c4f434b55500000000000000000000000000000604482015290519081900360640190fd5b6101285460d054614bdb9163ffffffff6301000000909104811690613ebf16565b4210614c2e576040805162461bcd60e51b815260206004820152601060248201527f45474c3a564f54455f544f4f5f46415200000000000000000000000000000000604482015290519081900360640190fd5b6101285460d054614c669162ffffff811691614c5a9163ffffffff6301000000909104811690613ebf16565b9063ffffffff613e5d16565b4210614cb9576040805162461bcd60e51b815260206004820152601260248201527f45474c3a564f54455f544f4f5f434c4f53450000000000000000000000000000604482015290519081900360640190fd5b61012554614ccd904563ffffffff61423116565b6101255561012654614ce690600163ffffffff61423116565b6101265561012854600090614d26908390614d1a906138dd9060ff88169063ffffffff630100000090910481169061413b16565b9063ffffffff61569516565b6001600160a01b038716600090815261011e6020526040812060cf54815462ffff00191661010061ffff909216919091021760ff191660ff8716908117825560018201849055600282018890556003820189905592935091614d8990879061413b565b905060005b8560ff168160ff161015614eb357614dbf8261010e8360ff1660088110614db157fe5b01549063ffffffff613ebf16565b61010e8260ff1660088110614dd057fe5b0155614df6614de5898463ffffffff61413b16565b6101168360ff1660088110614db157fe5b6101168260ff1660088110614e0757fe5b015560cf54603490614e269061ffff1660ff841663ffffffff613ebf16565b1015614e835760cf54614e5990839060d290614e4f9061ffff1660ff861663ffffffff613ebf16565b60348110614db157fe5b60cf5460d290614e769061ffff1660ff851663ffffffff613ebf16565b60348110614e8057fe5b01555b614e98876101068360ff1660088110614db157fe5b6101068260ff1660088110614ea957fe5b0155600101614d8e565b5060cf5461010e54610116547f58d3ad4d526c4b6a438a40b7d49daf638c30beaf79f1bea88df8dded09356181928b9261ffff909116918b918b918b918a9160348710614f01576000614f18565b60cf5460d29061ffff1660348110614f1557fe5b01545b61010660000154604080516001600160a01b03909b168b5261ffff90991660208b015289890197909752606089019590955260ff909316608088015260a087019190915260c086015260e08501526101008401526101208301524261014083015251908190036101600190a15050505050505050565b3390565b614f9a6120ff565b614feb576040805162461bcd60e51b815260206004820152601460248201527f5061757361626c653a206e6f7420706175736564000000000000000000000000604482015290519081900360640190fd5b6065805460ff191690557f5db9ee0a495bf2e6ff9c91a7834c1ba4fdd244a5e8aa4e537bd38aeae4b073aa61501e614f8e565b604080516001600160a01b039092168252519081900360200190a1565b6000818310615091576040805162461bcd60e51b815260206004820152601b60248201527f45474c3a494e56414c49445f53455249414c495a45445f45474c530000000000604482015290519081900360640190fd5b613f196b020b73425d21f1268ad00000610fc8670de0b6b3a7640000610fd460046150c2898463ffffffff61419416565b0a60046150dd89670de0b6b3a764000063ffffffff61419416565b0a9063ffffffff613e5d16565b6101285460009061510e9063ffffffff630100000090910481169060349061413b16565b841061511b575081613f19565b6101285460009061516590615149908590614c5a9063ffffffff630100000090910481169060349061413b16565b610fc8670de0b6b3a7640000610fd4898863ffffffff613e5d16565b90506151be6c0c9f2c9cd04674edea40000000610fc86305f5e100610fd461519b89670de0b6b3a764000063ffffffff61419416565b60046151b1886305f5e10063ffffffff61419416565b0a9063ffffffff61413b16565b60cf549092507f912dc0458edd7b6cdb520961a3eacab8d19587dc0cd0d14f25a27a5097a212b99061ffff16866151fc84606463ffffffff61413b16565b6040805161ffff909416845260208401929092528282015260608201859052608082018790524260a0830152519081900360c00190a1509392505050565b6152426120ff565b15615287576040805162461bcd60e51b815260206004820152601060248201526f14185d5cd8589b194e881c185d5cd95960821b604482015290519081900360640190fd5b6065805460ff191660011790557f62e78cea01bee320cd4e420270b5ea74000d11b0c9f74754ebdbfc544b05a25861501e614f8e565b60006152c8306156a5565b15905090565b600054610100900460ff16806152e757506152e76152bd565b806152f5575060005460ff16155b6153305760405162461bcd60e51b815260040180806020018281038252602e8152602001806156f3602e913960400191505060405180910390fd5b600054610100900460ff1615801561535b576000805460ff1961ff0019909116610100171660011790555b80156116a9576000805461ff001916905550565b600054610100900460ff168061538857506153886152bd565b80615396575060005460ff16155b6153d15760405162461bcd60e51b815260040180806020018281038252602e8152602001806156f3602e913960400191505060405180910390fd5b600054610100900460ff161580156153fc576000805460ff1961ff0019909116610100171660011790555b6000615406614f8e565b6033805473ffffffffffffffffffffffffffffffffffffffff19166001600160a01b038316908117909155604051919250906000907f8be0079c531659141344cd1fd0a4f28419497f9722a3daafe3b4186f6b6457e0908290a35080156116a9576000805461ff001916905550565b600054610100900460ff168061548e575061548e6152bd565b8061549c575060005460ff16155b6154d75760405162461bcd60e51b815260040180806020018281038252602e8152602001806156f3602e913960400191505060405180910390fd5b600054610100900460ff16158015615502576000805460ff1961ff0019909116610100171660011790555b6065805460ff1916905580156116a9576000805461ff001916905550565b600054610100900460ff168061553957506155396152bd565b80615547575060005460ff16155b6155825760405162461bcd60e51b815260040180806020018281038252602e8152602001806156f3602e913960400191505060405180910390fd5b600054610100900460ff161580156155ad576000805460ff1961ff0019909116610100171660011790555b600160975580156116a9576000805461ff001916905550565b600082841061561c576040805162461bcd60e51b815260206004820152601b60248201527f45474c3a494e56414c49445f53455249414c495a45445f45474c530000000000604482015290519081900360640190fd5b8385101561562c5750600061566b565b600061564285614c5a888763ffffffff613f2016565b9050615667615657858763ffffffff613e5d16565b610fc8858463ffffffff61413b16565b9150505b949350505050565b6000818313613eb457828203613f19565b6000818311613eb457828203613f19565b600081831015613f2f5781613f19565b3b15159056fe4f776e61626c653a206e6577206f776e657220697320746865207a65726f20616464726573735369676e6564536166654d6174683a206164646974696f6e206f766572666c6f77496e697469616c697a61626c653a20636f6e747261637420697320616c726561647920696e697469616c697a65645369676e6564536166654d6174683a206469766973696f6e206f766572666c6f77536166654d6174683a206d756c7469706c69636174696f6e206f766572666c6f775369676e6564536166654d6174683a206d756c7469706c69636174696f6e206f766572666c6f775369676e6564536166654d6174683a207375627472616374696f6e206f766572666c6f77a2646970667358221220245b93d0ef91e32415bfa37bfc01dc31d21e27292c2d992122acff4e6143059864736f6c63430006060033",
  "immutableReferences": {},
  "source": "pragma solidity 0.6.6;\n\nimport \"../EglContract.sol\";\n\ncontract TestableEglContract is EglContract {\n    event PercentageCalculated(uint percentage);\n    event SerializedEglCalculated(uint serializedEgl);\n    event PoolTokensDueCalculated(uint poolTokensDue);\n    event BonusEglsDueCalculated(uint bonusEglsDue);\n\n    function internalVote(\n        address _voter,\n        uint _gasTarget,\n        uint _eglAmount,\n        uint8 _lockupDuration,\n        uint _releaseTime\n    ) external {\n        _internalVote(\n            _voter,\n            _gasTarget,\n            _eglAmount,\n            _lockupDuration,\n            _releaseTime\n        );\n    }\n\n    function internalWithdraw(address _voter) external {\n        _internalWithdraw(_voter);\n    }\n\n    function issueCreatorRewards(uint _timePassedSinceOrigin) external {\n        _issueCreatorRewards(_timePassedSinceOrigin);\n    }\n\n    function calculateBlockReward(int _blockGasLimit, int _desiredEgl, int _tallyVoteGasLimit) external {\n        _calculateBlockReward(_blockGasLimit, _desiredEgl, _tallyVoteGasLimit);\n    }\n\n    function calculateSerializedEgl(uint _timePassedSinceOrigin, uint _maxSupply, uint _timeLocked) external {\n        uint releasedEgl = _calculateSerializedEgl(_timePassedSinceOrigin, _maxSupply, _timeLocked);\n        emit SerializedEglCalculated(releasedEgl);\n    }\n    \n    function calculateCurrentPoolTokensDue(\n        uint _currentEgl, \n        uint _firstEgl, \n        uint _lastEgl, \n        uint _totalPoolTokens\n    ) external {\n        uint poolTokensDue = _calculateCurrentPoolTokensDue(_currentEgl, _firstEgl, _lastEgl, _totalPoolTokens);\n        emit PoolTokensDueCalculated(poolTokensDue);\n    }\n\n    function calculateBonusEglsDue(uint _firstEgl, uint _lastEgl) external {\n        uint bonusEglsDue = _calculateBonusEglsDue(_firstEgl, _lastEgl);\n        emit BonusEglsDueCalculated(bonusEglsDue);\n    }\n\n    function calculateVoterReward(\n        address _voter,\n        uint16 _currentEpoch,\n        uint16 _voterEpoch,\n        uint8 _lockupDuration,\n        uint _voteWeight\n    ) external {\n        _calculateVoterReward(_voter, _currentEpoch, _voterEpoch, _lockupDuration, _voteWeight);\n    }\n\n    function calculatePercentageOfTokensInCirculation(uint _itemTotal, uint _tokensInCirculation) external {\n        tokensInCirculation = _tokensInCirculation;\n        uint percentage = _calculatePercentageOfTokensInCirculation(_itemTotal);\n        emit PercentageCalculated(percentage);\n    }\n}",
  "sourcePath": "/Users/greg/Documents/egl_master/voting/contracts/helpers/TestableEglContract.sol",
  "compiler": {
    "name": "solc",
    "version": "0.6.6+commit.6c089d02.Emscripten.clang"
  },
  "schemaVersion": "3.3.3",
  "updatedAt": "2022-02-16T17:24:06.851Z",
  "devdoc": {
    "methods": {
      "addSeedAccount(address,uint256)": {
        "params": {
          "_seedAccount": "Wallet address of seeder",
          "_seedAmount": "Amount of EGL's to seed"
        }
      },
      "claimSeederEgls(uint256,uint8)": {
        "params": {
          "_gasTarget": "desired gas target for initial vote",
          "_lockupDuration": "duration to lock tokens for - determines vote multiplier"
        }
      },
      "claimSupporterEgls(uint256,uint8)": {
        "params": {
          "_gasTarget": "desired gas target for initial vote",
          "_lockupDuration": "duration to lock tokens for - determines vote multiplier"
        }
      },
      "initialize(address,address,address,uint256,uint24,uint32,address[],uint256[],address)": {
        "params": {
          "_creatorRewardsAccount": "Address that creator rewards get sent to",
          "_currentEpochStartDate": "Start date for the first epoch",
          "_epochLength": "The length of each epoch in seconds",
          "_genesis": "Address of the EGL Genesis contract",
          "_poolToken": "Address of the Balance Pool Token (BPT)",
          "_seedAccounts": "List of accounts to seed with EGL's",
          "_seedAmounts": "Amount of EGLS's to seed accounts with",
          "_token": "Address of the EGL token     ",
          "_votingPauseSeconds": "Number of seconds to pause voting before votes are tallied"
        }
      },
      "owner()": {
        "details": "Returns the address of the current owner."
      },
      "paused()": {
        "details": "Returns true if the contract is paused, and false otherwise."
      },
      "reVote(uint256,uint256,uint8)": {
        "params": {
          "_eglAmount": "Amount of EGL's to vote with",
          "_gasTarget": "The votes target gas limit",
          "_lockupDuration": "Duration to lock the EGL's"
        }
      },
      "transferOwnership(address)": {
        "details": "Transfers ownership of the contract to a new account (`newOwner`). Can only be called by the current owner."
      },
      "vote(uint256,uint256,uint8)": {
        "params": {
          "_eglAmount": "Amount of EGL's to vote with",
          "_gasTarget": "The votes target gas limit",
          "_lockupDuration": "Duration to lock the EGL's"
        }
      }
    }
  },
  "userdoc": {
    "methods": {
      "addSeedAccount(address,uint256)": {
        "notice": "Owner only function to add a seeder account with specified number of EGL's. Amount cannot exceed balance allocated for seed/signal accounts"
      },
      "claimSeederEgls(uint256,uint8)": {
        "notice": "Function for seed/signal accounts to claim their EGL's. EGL's get locked up in a vote right away and can  only be withdrawn after the seeder/signal lockup period"
      },
      "claimSupporterEgls(uint256,uint8)": {
        "notice": "Allows EGL Genesis contributors to claim their \"bonus\" EGL's from contributing in Genesis. Bonus EGL's get locked up in a vote right away and can only be withdrawn once all BPT's are available"
      },
      "initialize(address,address,address,uint256,uint24,uint32,address[],uint256[],address)": {
        "notice": "Initialized contract variables and sets up token bucket sizes"
      },
      "pauseEgl()": {
        "notice": "Ower only funciton to pause contract"
      },
      "reVote(uint256,uint256,uint8)": {
        "notice": "Re-Vote to change parameters of an existing vote. Will not shorten the time the tokens are  locked up from the original vote "
      },
      "renounceOwnership()": {
        "notice": "Do not allow owner to renounce ownership, only transferOwnership"
      },
      "sweepPoolRewards()": {
        "notice": "Send EGL reward to miner of the block. Reward caclulated based on how close the block gas limit is to the desired EGL. The closer it is, the higher the reward"
      },
      "tallyVotes()": {
        "notice": "Tally Votes for the most recent epoch and calculate the new desired EGL amount"
      },
      "unpauseEgl()": {
        "notice": "Owner only function to unpause contract"
      },
      "vote(uint256,uint256,uint8)": {
        "notice": "Submit vote to either increase or decrease the desired gas limit"
      },
      "withdraw()": {
        "notice": "Withdraw EGL's once they have matured"
      },
      "withdrawPoolTokens()": {
        "notice": "Allows for the withdrawal of liquidity pool tokens once they have matured"
      }
    }
  }
}